:020000040000FA
:060000009CEF3AF0120033
:020006000000F8
:060008001AEF39F01200AE
:02000E001200DE
:060018003EEF39F012007A
:02001E00D9CF38
:10002000E6FFE1CFD9FF04000E010051E76EFC0EA0
:10003000DBCFE9FFFD0EDBCFEAFFE750E926000E3C
:10004000EA22FE0EDBCFEFFF0E010051E76EFC0E41
:10005000DBCFE9FFFD0EDBCFEAFFE750E926000E1C
:10006000EA22EF502B080DE10E01010E006FFC0E8D
:10007000DBCFE9FFFD0EDBCFEAFF2B0EEF6E000EAC
:10008000B1D00E01005106085AE20E010051E76E90
:10009000FC0EDBCFE9FFFD0EDBCFEAFFE750E926E0
:1000A000000EEA22EF500A084AE1010EE76EFC0E4C
:1000B000DBCFE9FFFD0EDBCFEAFFE750E926000EBC
:1000C000EA22EF5043083BE1020EE76EFC0EDBCF65
:1000D000E9FFFD0EDBCFEAFFE750E926000EEA223A
:1000E000EF504D082CE1030EE76EFC0EDBCFE9FF6D
:1000F000FD0EDBCFEAFFE750E926000EEA22EF50C3
:1001000047081DE1040EE76EFC0EDBCFE9FFFD0E94
:10011000DBCFEAFFE750E926000EEA22EF50520853
:100120000EE10E01010E006FFC0EDBCFE9FFFD0EAC
:10013000DBCFEAFF240EEF6E0000000E53D0FC0E62
:10014000DBCFE9FFFD0EDBCFEAFFEF50240838E1FB
:10015000020E0E01005DE76EFC0EDBCFE9FFFD0E27
:10016000DBCFEAFFE750E926000EEA22EF504B080A
:1001700027E10E010005E76EFC0EDBCFE9FFFD0E67
:10018000DBCFEAFFE750E926000EEA22EF500D0828
:1001900017E10E010051E76EFC0EDBCFE9FFFD0E0B
:1001A000DBCFEAFFE750E926000EEA22EF500A080B
:1001B00007E10E0100511F0803E20000010E12D0FA
:1001C0000E010051146E156A153404E21450C7086C
:1001D000000E155402E20E01006B0E01002B04000C
:1001E000000E00D0E552E7CFD9FF1200D9CFE6FFCD
:1001F000E1CFD9FF040EE126DF6A0400010EE76EAD
:10020000FD0EDBCF14F0FE0EDBCF15F0E750142609
:10021000000E152214C0E6FF15C0E6FFA5EC2FF076
:10022000E552E552DF6E080EDF5CE8240001F96F4D
:10023000150E0001F925E76E030EE7CFDBFF030E75
:10024000DB50E76EFD0EDBCF14F0FE0EDBCF15F0BA
:10025000E7501426000E152214C0E6FF15C0E6FF75
:10026000A5EC2FF0E552E552DF6E0D0EDF5C0001CC
:10027000F9250001FA6FFAC0FBF0390E0001FB25E9
:10028000E76E030EE7CFDBFF030EDB50E76EFD0EDC
:10029000DBCF14F0FE0EDBCF15F0E7501426000E76
:1002A000152214C0E6FF15C0E6FFA5EC2FF0E552BD
:1002B000E552DF6EDF90DF420000F70EDBCFE6FF96
:1002C000F80EDBCFE6FFF90EDBCFE6FFFA0EDBCF51
:1002D000E6FFFB0EDBCFE6FFFC0EDBCFE6FFFD0EFD
:1002E000DBCFE6FFFE0EDBCFE6FF1EEC10F0146E58
:1002F000080EE15E1450F70EDBCFE6FFF80EDBCF01
:10030000E6FF19EC2FF0E552E552000902E1FF0E7D
:10031000C2D0DF500D0A5AE00E0A01E0B9D03B0E00
:100320000001FB25E76E030EE7CFDBFF030EDB507A
:10033000E76EFD0EDBCF14F0FE0EDBCF15F0E750BD
:100340001426000E152214C0E6FF15C0E6FFAFD834
:10035000E552E552E76E010EE7CFDBFF010EDB5001
:1003600003E1000E98D006D0010EDB50020802E136
:10037000020E91D0F70EDBCFE6FFF80EDBCFE6FFE3
:10038000F90EDBCFE6FFFA0EDBCFE6FFFB0EDBCF8D
:10039000E6FFFC0EDBCFE6FFFD0EDBCFE6FFFE0E39
:1003A000DBCFE6FF1EEC10F0146E080EE15E145079
:1003B000E76E020EE7CFDBFF020EDB5004E0010E1A
:1003C000DB5069D002D0010E66D064D0F70EDBCFCF
:1003D000E6FFF80EDBCFE6FFF90EDBCFE6FFFA0E05
:1003E000DBCFE6FFFB0EDBCFE6FFFC0EDBCFE6FF4D
:1003F000FD0EDBCFE6FFFE0EDBCFE6FF1EEC10F0BE
:10040000146E080EE15E1450E76E010EE7CFDBFFBD
:10041000010EDB5002E1010E3ED03B0E0001FB2538
:10042000E76E030EE7CFDBFF010EDBCFE6FFF70E33
:10043000DBCFE6FFF80EDBCFE6FFF90EDBCFE6FF02
:10044000FA0EDBCFE6FFFB0EDBCFE6FFFC0EDBCFC9
:10045000E6FF030EDB50E76EFD0EDBCF14F0FE0E61
:10046000DBCF15F0E7501426000E152214C0E6FF6E
:1004700015C0E6FFA0EC0CF0166E090EE15E1650FA
:10048000E76E020EE7CFDBFF020EDB5004D002D096
:10049000020E01D00400146E040EE15C02E2E16A77
:1004A000E552E16E1450E552E7CFD9FF1200D9CFE3
:1004B000E6FFE1CFD9FFFD0EDBCFE9FFFE0EDBCF7C
:1004C000EAFFEF50360801E0AED0010EE76EFD0EF8
:1004D000DBCFE9FFFE0EDBCFEAFFE750E926000E97
:1004E000EA22EF50300801E09ED0020EE76EFD0ECA
:1004F000DBCFE9FFFE0EDBCFEAFFE750E926000E77
:10050000EA22EF50300801E08ED0030EE76EFD0EB8
:10051000DBCFE9FFFE0EDBCFEAFFE750E926000E56
:10052000EA22EF50450801E07ED0040EE76EFD0E92
:10053000DBCFE9FFFE0EDBCFEAFFE750E926000E36
:10054000EA22EF5034086FE1050EE76EFD0EDBCFB7
:10055000E9FFFE0EDBCFEAFFE750E926000EEA22B4
:10056000EF50450860E1060EE76EFD0EDBCFE9FFB8
:10057000FE0EDBCFEAFFE750E926000EEA22EF503D
:10058000340851E1070EE76EFD0EDBCFE9FFFE0EEA
:10059000DBCFEAFFE750E926000EEA22EF503808E9
:1005A00042E1080EE76EFD0EDBCFE9FFFE0EDBCF6A
:1005B000EAFFE750E926000EEA22EF50360833E161
:1005C000090EE76EFD0EDBCFE9FFFE0EDBCFEAFF83
:1005D000E750E926000EEA22EF50380824E10A0E1F
:1005E000E76EFD0EDBCFE9FFFE0EDBCFEAFFE75043
:1005F000E926000EEA22EF50330815E10B0EE76EF4
:10060000FD0EDBCFE9FFFE0EDBCFEAFFE750E92668
:10061000000EEA22EF50370806E10400000E9CEFBE
:100620000CF099EF0CF0FD0EDBCFE9FFFE0EDBCFF7
:10063000EAFFEF50340801E030D2010EE76EFD0E04
:10064000DBCFE9FFFE0EDBCFEAFFE750E926000E25
:10065000EA22EF50450801E020D2020EE76EFD0EBF
:10066000DBCFE9FFFE0EDBCFEAFFE750E926000E05
:10067000EA22EF50410801E010D2030EE76EFD0EB2
:10068000DBCFE9FFFE0EDBCFEAFFE750E926000EE5
:10069000EA22EF50340801E000D20400040EE76EB5
:1006A000FD0EDBCFE9FFFE0EDBCFEAFFE750E926C8
:1006B000000EEA22EF5037086EE1050EE76EFD0EE0
:1006C000DBCFE9FFFE0EDBCFEAFFE750E926000EA5
:1006D000EA22EF5036085FE1060EE76EFD0EDBCF33
:1006E000E9FFFE0EDBCFEAFFE750E926000EEA2223
:1006F000EF50460850E1070EE76EFD0EDBCFE9FF35
:10070000FE0EDBCFEAFFE750E926000EEA22EF50AB
:10071000340841E1080EE76EFD0EDBCFE9FFFE0E67
:10072000DBCFEAFFE750E926000EEA22EF5034085B
:1007300031E1090EE76EFD0EDBCFE9FFFE0EDBCFE8
:10074000EAFFE750E926000EEA22EF50460822E1D0
:100750000A0EE76EFD0EDBCFE9FFFE0EDBCFEAFFF0
:10076000E750E926000EEA22EF50390813E10B0E9C
:10077000E76EFD0EDBCFE9FFFE0EDBCFEAFFE750B1
:10078000E926000EEA22EF50420804E1470E9CEFF2
:100790000CF0000080D1040EE76EFD0EDBCFE9FF08
:1007A000FE0EDBCFEAFFE750E926000EEA22EF500B
:1007B000390801E0B1D0050EE76EFD0EDBCFE9FF91
:1007C000FE0EDBCFEAFFE750E926000EEA22EF50EB
:1007D000360801E0A1D0060EE76EFD0EDBCFE9FF83
:1007E000FE0EDBCFEAFFE750E926000EEA22EF50CB
:1007F000390801E091D0070EE76EFD0EDBCFE9FF6F
:10080000FE0EDBCFEAFFE750E926000EEA22EF50AA
:10081000340801E081D0080EE76EFD0EDBCFE9FF62
:10082000FE0EDBCFEAFFE750E926000EEA22EF508A
:10083000340832E1090EE76EFD0EDBCFE9FFFE0E54
:10084000DBCFEAFFE750E926000EEA22EF50450829
:1008500023E10A0EE76EFD0EDBCFE9FFFE0EDBCFD4
:10086000EAFFE750E926000EEA22EF50300814E1D3
:100870000B0EE76EFD0EDBCFE9FFFE0EDBCFEAFFCE
:10088000E750E926000EEA22EF50300805E1480E55
:100890009CEF0CF000003FD0080EE76EFD0EDBCFA2
:1008A000E9FFFE0EDBCFEAFFE750E926000EEA2261
:1008B000EF50340830E1090EE76EFD0EDBCFE9FFA3
:1008C000FE0EDBCFEAFFE750E926000EEA22EF50EA
:1008D000450821E10A0EE76EFD0EDBCFE9FFFE0EB3
:1008E000DBCFEAFFE750E926000EEA22EF50380896
:1008F00012E10B0EE76EFD0EDBCFE9FFFE0EDBCF44
:10090000EAFFE750E926000EEA22EF50430803E130
:10091000490E9CEF0CF0BFD0040EE76EFD0EDBCF4E
:10092000E9FFFE0EDBCFEAFFE750E926000EEA22E0
:10093000EF50360801E0AFD0050EE76EFD0EDBCFBD
:10094000E9FFFE0EDBCFEAFFE750E926000EEA22C0
:10095000EF50440801E09FD0060EE76EFD0EDBCF9E
:10096000E9FFFE0EDBCFEAFFE750E926000EEA22A0
:10097000EF50360801E08FD0070EE76EFD0EDBCF9B
:10098000E9FFFE0EDBCFEAFFE750E926000EEA2280
:10099000EF50450801E07FD0080EE76EFD0EDBCF7B
:1009A000E9FFFE0EDBCFEAFFE750E926000EEA2260
:1009B000EF50340831E1090EE76EFD0EDBCFE9FFA1
:1009C000FE0EDBCFEAFFE750E926000EEA22EF50E9
:1009D000450822E10A0EE76EFD0EDBCFE9FFFE0EB1
:1009E000DBCFEAFFE750E926000EEA22EF5030089D
:1009F00013E10B0EE76EFD0EDBCFE9FFFE0EDBCF42
:100A0000EAFFE750E926000EEA22EF50300804E141
:100A10004A0E9CEF0CF03FD0080EE76EFD0EDBCFC8
:100A2000E9FFFE0EDBCFEAFFE750E926000EEA22DF
:100A3000EF50340830E1090EE76EFD0EDBCFE9FF21
:100A4000FE0EDBCFEAFFE750E926000EEA22EF5068
:100A5000450821E10A0EE76EFD0EDBCFE9FFFE0E31
:100A6000DBCFEAFFE750E926000EEA22EF50380814
:100A700012E10B0EE76EFD0EDBCFE9FFFE0EDBCFC2
:100A8000EAFFE750E926000EEA22EF50430803E1AF
:100A90004B0E9CEF0CF099EF0CF0FD0EDBCFE9FF55
:100AA000FE0EDBCFEAFFEF50350801E0B2D1010EB8
:100AB000E76EFD0EDBCFE9FFFE0EDBCFEAFFE7506E
:100AC000E926000EEA22EF50310801E0A2D1020E21
:100AD000E76EFD0EDBCFE9FFFE0EDBCFEAFFE7504E
:100AE000E926000EEA22EF50340801E092D1030E0D
:100AF000E76EFD0EDBCFE9FFFE0EDBCFEAFFE7502E
:100B0000E926000EEA22EF50390801E082D1040004
:100B1000040EE76EFD0EDBCFE9FFFE0EDBCFEAFF32
:100B2000E750E926000EEA22EF50390801E0B0D084
:100B3000050EE76EFD0EDBCFE9FFFE0EDBCFEAFF11
:100B4000E750E926000EEA22EF50360801E0A0D077
:100B5000060EE76EFD0EDBCFE9FFFE0EDBCFEAFFF0
:100B6000E750E926000EEA22EF50390801E090D064
:100B7000070EE76EFD0EDBCFE9FFFE0EDBCFEAFFCF
:100B8000E750E926000EEA22EF50340801E080D059
:100B9000080EE76EFD0EDBCFE9FFFE0EDBCFEAFFAE
:100BA000E750E926000EEA22EF50340831E1090E41
:100BB000E76EFD0EDBCFE9FFFE0EDBCFEAFFE7506D
:100BC000E926000EEA22EF50450822E10A0EE76E00
:100BD000FD0EDBCFE9FFFE0EDBCFEAFFE750E92693
:100BE000000EEA22EF50300813E10B0EE76EFD0E07
:100BF000DBCFE9FFFE0EDBCFEAFFE750E926000E70
:100C0000EA22EF50300804E14C0E9CEF0CF03FD08C
:100C1000080EE76EFD0EDBCFE9FFFE0EDBCFEAFF2D
:100C2000E750E926000EEA22EF50340830E1090EC1
:100C3000E76EFD0EDBCFE9FFFE0EDBCFEAFFE750EC
:100C4000E926000EEA22EF50450821E10A0EE76E80
:100C5000FD0EDBCFE9FFFE0EDBCFEAFFE750E92612
:100C6000000EEA22EF50380812E10B0EE76EFD0E7F
:100C7000DBCFE9FFFE0EDBCFEAFFE750E926000EEF
:100C8000EA22EF50430803E14D0E9CEF0CF0BFD079
:100C9000040EE76EFD0EDBCFE9FFFE0EDBCFEAFFB1
:100CA000E750E926000EEA22EF50360801E0AFD007
:100CB000050EE76EFD0EDBCFE9FFFE0EDBCFEAFF90
:100CC000E750E926000EEA22EF50440801E09FD0E9
:100CD000060EE76EFD0EDBCFE9FFFE0EDBCFEAFF6F
:100CE000E750E926000EEA22EF50360801E08FD0E7
:100CF000070EE76EFD0EDBCFE9FFFE0EDBCFEAFF4E
:100D0000E750E926000EEA22EF50450801E07FD0C7
:100D1000080EE76EFD0EDBCFE9FFFE0EDBCFEAFF2C
:100D2000E750E926000EEA22EF50340831E1090EBF
:100D3000E76EFD0EDBCFE9FFFE0EDBCFEAFFE750EB
:100D4000E926000EEA22EF50450822E10A0EE76E7E
:100D5000FD0EDBCFE9FFFE0EDBCFEAFFE750E92611
:100D6000000EEA22EF50300813E10B0EE76EFD0E85
:100D7000DBCFE9FFFE0EDBCFEAFFE750E926000EEE
:100D8000EA22EF50300804E1520E9CEF0CF03FD005
:100D9000080EE76EFD0EDBCFE9FFFE0EDBCFEAFFAC
:100DA000E750E926000EEA22EF50340830E1090E40
:100DB000E76EFD0EDBCFE9FFFE0EDBCFEAFFE7506B
:100DC000E926000EEA22EF50450821E10A0EE76EFF
:100DD000FD0EDBCFE9FFFE0EDBCFEAFFE750E92691
:100DE000000EEA22EF50380812E10B0EE76EFD0EFE
:100DF000DBCFE9FFFE0EDBCFEAFFE750E926000E6E
:100E0000EA22EF50430803E14F0E9CEF0CF099EFFC
:100E10000CF0FD0EDBCFE9FFFE0EDBCFEAFFEF505B
:100E2000360801E0F2D0010EE76EFD0EDBCFE9FFE0
:100E3000FE0EDBCFEAFFE750E926000EEA22EF5074
:100E4000350801E0E2D0020EE76EFD0EDBCFE9FFD0
:100E5000FE0EDBCFEAFFE750E926000EEA22EF5054
:100E6000450801E0D2D0030EE76EFD0EDBCFE9FFAF
:100E7000FE0EDBCFEAFFE750E926000EEA22EF5034
:100E8000300801E0C2D00400040EE76EFD0EDBCF97
:100E9000E9FFFE0EDBCFEAFFE750E926000EEA226B
:100EA000EF50390801E0AFD0050EE76EFD0EDBCF45
:100EB000E9FFFE0EDBCFEAFFE750E926000EEA224B
:100EC000EF50360801E09FD0060EE76EFD0EDBCF37
:100ED000E9FFFE0EDBCFEAFFE750E926000EEA222B
:100EE000EF50390801E08FD0070EE76EFD0EDBCF23
:100EF000E9FFFE0EDBCFEAFFE750E926000EEA220B
:100F0000EF50340801E07FD0080EE76EFD0EDBCF16
:100F1000E9FFFE0EDBCFEAFFE750E926000EEA22EA
:100F2000EF50340831E1090EE76EFD0EDBCFE9FF2B
:100F3000FE0EDBCFEAFFE750E926000EEA22EF5073
:100F4000450822E10A0EE76EFD0EDBCFE9FFFE0E3B
:100F5000DBCFEAFFE750E926000EEA22EF50300827
:100F600013E10B0EE76EFD0EDBCFE9FFFE0EDBCFCC
:100F7000EAFFE750E926000EEA22EF50300804E1CC
:100F8000500E9CEF0CF03FD0080EE76EFD0EDBCF4D
:100F9000E9FFFE0EDBCFEAFFE750E926000EEA226A
:100FA000EF50340830E1090EE76EFD0EDBCFE9FFAC
:100FB000FE0EDBCFEAFFE750E926000EEA22EF50F3
:100FC000450821E10A0EE76EFD0EDBCFE9FFFE0EBC
:100FD000DBCFEAFFE750E926000EEA22EF5038089F
:100FE00012E10B0EE76EFD0EDBCFE9FFFE0EDBCF4D
:100FF000EAFFE750E926000EEA22EF50430803E13A
:10100000510E9CEF0CF099EF0CF0FD0EDBCFE9FFD9
:10101000FE0EDBCFEAFFEF50350801E02ED1010EC6
:10102000E76EFD0EDBCFE9FFFE0EDBCFEAFFE750F8
:10103000E926000EEA22EF50340801E01ED1020E2C
:10104000E76EFD0EDBCFE9FFFE0EDBCFEAFFE750D8
:10105000E926000EEA22EF50300801E00ED1030E1F
:10106000E76EFD0EDBCFE9FFFE0EDBCFEAFFE750B8
:10107000E926000EEA22EF50380801E0FED0040015
:10108000040EE76EFD0EDBCFE9FFFE0EDBCFEAFFBD
:10109000E750E926000EEA22EF50380801E0ECD0D4
:1010A000050EE76EFD0EDBCFE9FFFE0EDBCFEAFF9C
:1010B000E750E926000EEA22EF50460801E0DCD0B6
:1010C000060EE76EFD0EDBCFE9FFFE0EDBCFEAFF7B
:1010D000E750E926000EEA22EF50370801E0CCD0B5
:1010E000070EE76EFD0EDBCFE9FFFE0EDBCFEAFF5A
:1010F000E750E926000EEA22EF50440801E0BCD098
:10110000080EE76EFD0EDBCFE9FFFE0EDBCFEAFF38
:10111000E750E926000EEA22EF50340830E1090ECC
:10112000E76EFD0EDBCFE9FFFE0EDBCFEAFFE750F7
:10113000E926000EEA22EF50450821E10A0EE76E8B
:10114000FD0EDBCFE9FFFE0EDBCFEAFFE750E9261D
:10115000000EEA22EF50300812E10B0EE76EFD0E92
:10116000DBCFE9FFFE0EDBCFEAFFE750E926000EFA
:10117000EA22EF50300803E1410EDED37DD0080EA5
:10118000E76EFD0EDBCFE9FFFE0EDBCFEAFFE75097
:10119000E926000EEA22EF50340830E1090EE76E2E
:1011A000FD0EDBCFE9FFFE0EDBCFEAFFE750E926BD
:1011B000000EEA22EF50450821E10A0EE76EFD0E0F
:1011C000DBCFE9FFFE0EDBCFEAFFE750E926000E9A
:1011D000EA22EF50300812E10B0EE76EFD0EDBCF76
:1011E000E9FFFE0EDBCFEAFFE750E926000EEA2218
:1011F000EF50390803E14E0E9FD33ED0080EE76E44
:10120000FD0EDBCFE9FFFE0EDBCFEAFFE750E9265C
:10121000000EEA22EF5035082FE1090EE76EFD0EB1
:10122000DBCFE9FFFE0EDBCFEAFFE750E926000E39
:10123000EA22EF50360820E10A0EE76EFD0EDBCF02
:10124000E9FFFE0EDBCFEAFFE750E926000EEA22B7
:10125000EF50440811E10B0EE76EFD0EDBCFE9FF06
:10126000FE0EDBCFEAFFE750E926000EEA22EF5040
:10127000420802E1540E60D35CD3FD0EDBCFE9FFE0
:10128000FE0EDBCFEAFFEF50360801E0E7D1010E9A
:10129000E76EFD0EDBCFE9FFFE0EDBCFEAFFE75086
:1012A000E926000EEA22EF50350801E0D7D1020E00
:1012B000E76EFD0EDBCFE9FFFE0EDBCFEAFFE75066
:1012C000E926000EEA22EF50410801E0C7D1030EE3
:1012D000E76EFD0EDBCFE9FFFE0EDBCFEAFFE75046
:1012E000E926000EEA22EF50440801E0B7D10400DD
:1012F000040EE76EFD0EDBCFE9FFFE0EDBCFEAFF4B
:10130000E750E926000EEA22EF50380801E02BD121
:10131000050EE76EFD0EDBCFE9FFFE0EDBCFEAFF29
:10132000E750E926000EEA22EF50460801E01BD103
:10133000060EE76EFD0EDBCFE9FFFE0EDBCFEAFF08
:10134000E750E926000EEA22EF50370801E00BD102
:10135000070EE76EFD0EDBCFE9FFFE0EDBCFEAFFE7
:10136000E750E926000EEA22EF50440801E0FBD0E6
:10137000080EE76EFD0EDBCFE9FFFE0EDBCFEAFFC6
:10138000E750E926000EEA22EF50340830E1090E5A
:10139000E76EFD0EDBCFE9FFFE0EDBCFEAFFE75085
:1013A000E926000EEA22EF50450821E10A0EE76E19
:1013B000FD0EDBCFE9FFFE0EDBCFEAFFE750E926AB
:1013C000000EEA22EF50300812E10B0EE76EFD0E20
:1013D000DBCFE9FFFE0EDBCFEAFFE750E926000E88
:1013E000EA22EF50300803E1420EA6D2BCD0080E2C
:1013F000E76EFD0EDBCFE9FFFE0EDBCFEAFFE75025
:10140000E926000EEA22EF50340830E1090EE76EBB
:10141000FD0EDBCFE9FFFE0EDBCFEAFFE750E9264A
:10142000000EEA22EF50450821E10A0EE76EFD0E9C
:10143000DBCFE9FFFE0EDBCFEAFFE750E926000E27
:10144000EA22EF50380812E10B0EE76EFD0EDBCFFB
:10145000E9FFFE0EDBCFEAFFE750E926000EEA22A5
:10146000EF50430803E1430E67D27DD0080EE76ECC
:10147000FD0EDBCFE9FFFE0EDBCFEAFFE750E926EA
:10148000000EEA22EF50340830E1090EE76EFD0E3F
:10149000DBCFE9FFFE0EDBCFEAFFE750E926000EC7
:1014A000EA22EF50450821E10A0EE76EFD0EDBCF80
:1014B000E9FFFE0EDBCFEAFFE750E926000EEA2245
:1014C000EF50300812E10B0EE76EFD0EDBCFE9FFA7
:1014D000FE0EDBCFEAFFE750E926000EEA22EF50CE
:1014E000390803E1530E28D23ED0080EE76EFD0EF8
:1014F000DBCFE9FFFE0EDBCFEAFFE750E926000E67
:10150000EA22EF5035082FE1090EE76EFD0EDBCF22
:10151000E9FFFE0EDBCFEAFFE750E926000EEA22E4
:10152000EF50360820E10A0EE76EFD0EDBCFE9FF33
:10153000FE0EDBCFEAFFE750E926000EEA22EF506D
:10154000440811E10B0EE76EFD0EDBCFE9FFFE0E46
:10155000DBCFEAFFE750E926000EEA22EF5042080F
:1015600002E1550EE9D1040EE76EFD0EDBCFE9FF77
:10157000FE0EDBCFEAFFE750E926000EEA22EF502D
:1015800039086BE1050EE76EFD0EDBCFE9FFFE0EBD
:10159000DBCFEAFFE750E926000EEA22EF503008E1
:1015A0005CE1060EE76EFD0EDBCFE9FFFE0EDBCF42
:1015B000EAFFE750E926000EEA22EF5030084DE13D
:1015C000070EE76EFD0EDBCFE9FFFE0EDBCFEAFF75
:1015D000E750E926000EEA22EF5036083EE1080EF9
:1015E000E76EFD0EDBCFE9FFFE0EDBCFEAFFE75033
:1015F000E926000EEA22EF5035082FE1090EE76ECA
:10160000FD0EDBCFE9FFFE0EDBCFEAFFE750E92658
:10161000000EEA22EF50330820E10A0EE76EFD0EBD
:10162000DBCFE9FFFE0EDBCFEAFFE750E926000E35
:10163000EA22EF50440811E10B0EE76EFD0EDBCFFE
:10164000E9FFFE0EDBCFEAFFE750E926000EEA22B3
:10165000EF50380802E1440E6FD16BD1FD0EDBCFA5
:10166000E9FFFE0EDBCFEAFFEF50340801E0ACD01B
:10167000010EE76EFD0EDBCFE9FFFE0EDBCFEAFFCA
:10168000E750E926000EEA22EF50450801E09CD021
:10169000020EE76EFD0EDBCFE9FFFE0EDBCFEAFFA9
:1016A000E750E926000EEA22EF50330801E08CD023
:1016B000030EE76EFD0EDBCFE9FFFE0EDBCFEAFF88
:1016C000E750E926000EEA22EF50420801E07CD004
:1016D0000400040EE76EFD0EDBCFE9FFFE0EDBCF4C
:1016E000EAFFE750E926000EEA22EF5035086BE1E9
:1016F000050EE76EFD0EDBCFE9FFFE0EDBCFEAFF46
:10170000E750E926000EEA22EF5039085CE1060EA8
:10171000E76EFD0EDBCFE9FFFE0EDBCFEAFFE75001
:10172000E926000EEA22EF5030084DE1070EE76E81
:10173000FD0EDBCFE9FFFE0EDBCFEAFFE750E92627
:10174000000EEA22EF5044083EE1080EE76EFD0E5F
:10175000DBCFE9FFFE0EDBCFEAFFE750E926000E04
:10176000EA22EF5034082FE1090EE76EFD0EDBCFC1
:10177000E9FFFE0EDBCFEAFFE750E926000EEA2282
:10178000EF50460820E10A0EE76EFD0EDBCFE9FFC1
:10179000FE0EDBCFEAFFE750E926000EEA22EF500B
:1017A000340811E10B0EE76EFD0EDBCFE9FFFE0EF4
:1017B000DBCFEAFFE750E926000EEA22EF504408AB
:1017C00002E1450EB9D0B5D0FD0EDBCFE9FFFE0E2C
:1017D000DBCFEAFFEF50340801E0ABD0010EE76E3B
:1017E000FD0EDBCFE9FFFE0EDBCFEAFFE750E92677
:1017F000000EEA22EF50450801E09BD0020EE76E92
:10180000FD0EDBCFE9FFFE0EDBCFEAFFE750E92656
:10181000000EEA22EF50430801E08BD0030EE76E82
:10182000FD0EDBCFE9FFFE0EDBCFEAFFE750E92636
:10183000000EEA22EF50450801E07BD00400040EC0
:10184000E76EFD0EDBCFE9FFFE0EDBCFEAFFE750D0
:10185000E926000EEA22EF5035086BE1050EE76E2F
:10186000FD0EDBCFE9FFFE0EDBCFEAFFE750E926F6
:10187000000EEA22EF5039085CE1060EE76EFD0E1D
:10188000DBCFE9FFFE0EDBCFEAFFE750E926000ED3
:10189000EA22EF5030084DE1070EE76EFD0EDBCF78
:1018A000E9FFFE0EDBCFEAFFE750E926000EEA2251
:1018B000EF5044083EE1080EE76EFD0EDBCFE9FF76
:1018C000FE0EDBCFEAFFE750E926000EEA22EF50DA
:1018D00034082FE1090EE76EFD0EDBCFE9FFFE0EA7
:1018E000DBCFEAFFE750E926000EEA22EF50460878
:1018F00020E10A0EE76EFD0EDBCFE9FFFE0EDBCF27
:10190000EAFFE750E926000EEA22EF50340811E121
:101910000B0EE76EFD0EDBCFE9FFFE0EDBCFEAFF1D
:10192000E750E926000EEA22EF50440802E1460E95
:1019300003D0020E01D00400E552E7CFD9FF120018
:10194000D9CFE6FFE1CFD9FF020EE1260400FD0E5C
:10195000DBCFE9FFFE0EDBCFEAFFEF50340801E0FA
:101960007DD1010EE76EFD0EDBCFE9FFFE0EDBCF72
:10197000EAFFE750E926000EEA22EF50450801E0B1
:101980006DD1020EE76EFD0EDBCFE9FFFE0EDBCF61
:10199000EAFFE750E926000EEA22EF50330801E0A3
:1019A0005DD1030EE76EFD0EDBCFE9FFFE0EDBCF50
:1019B000EAFFE750E926000EEA22EF50420801E074
:1019C0004DD1F60EDB5001E149D1040EE76EFD0E5C
:1019D000DBCFE9FFFE0EDBCFEAFFE750E926000E82
:1019E000EA22EF50300801E094D0050EE76EFD0EBC
:1019F000DBCFE9FFFE0EDBCFEAFFE750E926000E62
:101A0000EA22EF50300801E084D0060EE76EFD0EAA
:101A1000DBCFE9FFFE0EDBCFEAFFE750E926000E41
:101A2000EA22EF50330875E1070EE76EFD0EDBCFBB
:101A3000E9FFFE0EDBCFEAFFE750E926000EEA22BF
:101A4000EF50310866E1DE520B0EDD6EDF6A0B0EE1
:101A5000DF5C32E2010EDBCFE6FF040EDF02F35063
:101A6000E552E724E76EFD0EDBCFE9FFFE0EDBCF8C
:101A7000EAFFE750E926000EEA22EFCF14F0300E1D
:101A8000145C16E3010EDBCFE6FF040EDF02F35019
:101A9000E552E724E76EFD0EDBCFE9FFFE0EDBCF5C
:101AA000EAFFE750E926000EEA22EF50390802E289
:101AB000020EBBD1DF2ACBD7DF6A0B0EDF5C26E23A
:101AC000010EDBCFE6FF040EDF02F350E552E72400
:101AD000E76EFD0EDBCFE9FFFE0EDBCFEAFFE7503E
:101AE000E926000EEA22EF50E66EDF50E76EFB0EAD
:101AF000DBCFE9FFFC0EDBCFEAFFE750E926000E63
:101B0000EA22E552E750EF6EDF2AD7D7560E8DD185
:101B1000A4D0040EE76EFD0EDBCFE9FFFE0EDBCF97
:101B2000EAFFE750E926000EEA22EF50300801E014
:101B300094D0050EE76EFD0EDBCFE9FFFE0EDBCF86
:101B4000EAFFE750E926000EEA22EF50300801E0F4
:101B500084D0060EE76EFD0EDBCFE9FFFE0EDBCF75
:101B6000EAFFE750E926000EEA22EF50330875E15C
:101B7000070EE76EFD0EDBCFE9FFFE0EDBCFEAFFBF
:101B8000E750E926000EEA22EF50320866E1DE5205
:101B90000B0EDD6EDF6A0B0EDF5C32E2010EDBCF77
:101BA000E6FF040EDF02F350E552E724E76EFD0E78
:101BB000DBCFE9FFFE0EDBCFEAFFE750E926000EA0
:101BC000EA22EFCF14F0300E145C16E3010EDBCFE7
:101BD000E6FF040EDF02F350E552E724E76EFD0E48
:101BE000DBCFE9FFFE0EDBCFEAFFE750E926000E70
:101BF000EA22EF50390802E2020E17D1DF2ACBD7D2
:101C0000DF6A0B0EDF5C27E2010EDBCFE6FF040E7E
:101C1000DF02F350E552E724E76EFD0EDBCFE9FF6C
:101C2000FE0EDBCFEAFFE750E926000EEA22EF5076
:101C3000E66E0B0EDF24E76EFB0EDBCFE9FFFC0E3A
:101C4000DBCFEAFFE750E926000EEA22E552E75033
:101C5000EF6EDF2AD6D7570EE8D0E7D0FD0EDBCFE8
:101C6000E9FFFE0EDBCFEAFFEF50360801E0DBD0E4
:101C7000010EE76EFD0EDBCFE9FFFE0EDBCFEAFFC4
:101C8000E750E926000EEA22EF50370801E0CBD0FA
:101C9000020EE76EFD0EDBCFE9FFFE0EDBCFEAFFA3
:101CA000E750E926000EEA22EF50340801E0BBD0ED
:101CB000030EE76EFD0EDBCFE9FFFE0EDBCFEAFF82
:101CC000E750E926000EEA22EF50330801E0ABD0DE
:101CD000040EE76EFD0EDBCFE9FFFE0EDBCFEAFF61
:101CE000E750E926000EEA22EF50300801E09AD0D2
:101CF000050EE76EFD0EDBCFE9FFFE0EDBCFEAFF40
:101D0000E750E926000EEA22EF50300801E08AD0C1
:101D1000060EE76EFD0EDBCFE9FFFE0EDBCFEAFF1E
:101D2000E750E926000EEA22EF50330801E07AD0AE
:101D3000070EE76EFD0EDBCFE9FFFE0EDBCFEAFFFD
:101D4000E750E926000EEA22EF5031086BE1F60E6B
:101D5000DB50040802E0010E68D0DE520B0EDD6E8F
:101D6000DF6A0B0EDF5C32E2010EDBCFE6FF040E12
:101D7000DF02F350E552E724E76EFD0EDBCFE9FF0B
:101D8000FE0EDBCFEAFFE750E926000EEA22EFCF96
:101D900014F0300E145C16E3010EDBCFE6FF040EE8
:101DA000DF02F350E552E724E76EFD0EDBCFE9FFDB
:101DB000FE0EDBCFEAFFE750E926000EEA22EF50E5
:101DC000390802E2020E31D0DF2ACBD7DF6A0B0ED0
:101DD000DF5C26E2010EDBCFE6FF040EDF02F350EC
:101DE000E552E724E76EFD0EDBCFE9FFFE0EDBCF09
:101DF000EAFFE750E926000EEA22EF50E66EDF50D8
:101E0000E76EF90EDBCFE9FFFA0EDBCFEAFFE75012
:101E1000E926000EEA22E552E750EF6EDF2AD7D717
:101E2000590E03D002D0020E00D0146E020EE15CF7
:101E300002E2E16AE552E16E1450E552E7CFD9FFC4
:101E40001200D9CFE6FFE1CFD9FF050EE1262D0E16
:101E5000E76EFD0EDBCFE9FFFE0EDBCFEAFFE750BA
:101E6000E926000EEA22EF50D00F146E2E0EE76E18
:101E7000FD0EDBCFE9FFFE0EDBCFEAFFE750E926E0
:101E8000000EEA22EF50D00F1402F350DF6E300E36
:101E9000E76EFD0EDBCFE9FFFE0EDBCFEAFFE7507A
:101EA000E926000EEA22EF50D00F146E2D0EE76ED9
:101EB000FD0EDBCFE9FFFE0EDBCFEAFFE750E926A0
:101EC000000EEA22EF50D00F1402010EF3CFDBFF19
:101ED0002F0EE76EFD0EDBCFE9FFFE0EDBCFEAFF34
:101EE000E750E926000EEA22EF50D00F146E300EB4
:101EF000E76EFD0EDBCFE9FFFE0EDBCFEAFFE7501A
:101F0000E926000EEA22EF50D00F1402020EF3CFA2
:101F1000DBFF2E0EE76EFD0EDBCFE9FFFE0EDBCF03
:101F2000EAFFE750E926000EEA22EF50D00F146EC8
:101F30002F0EE76EFD0EDBCFE9FFFE0EDBCFEAFFD3
:101F4000E750E926000EEA22EF50D00F1402030EEC
:101F5000F3CFDBFF0A0E146E14C00CF0DFCF07F0D6
:101F6000AAEC3AF00350300FDF6E0A0E146E14C064
:101F70000CF0010EDBCF07F0AAEC3AF00350300F63
:101F8000E76E010EE7CFDBFF0A0E146E14C00CF0F3
:101F9000020EDBCF07F0AAEC3AF00350300FE76EE9
:101FA000020EE7CFDBFF0A0E146E14C00CF0030E16
:101FB000DBCF07F0AAEC3AF00350300FE76E030EC8
:101FC000E7CFDBFF040EDB6AF36EDBCFF4FFF350E9
:101FD000F45C26E2D9CF15F0DACF16F0040EDB5010
:101FE0000F011524E96E000E1620EA6EEFCF14F0F3
:101FF000040EDB50040DF3503E0FE76EFD0EDBCFF9
:10200000E9FFFE0EDBCFEAFFE750E926000EEA22E9
:10201000EF50145C02E0000E05D0040EDB2AD4D78A
:10202000010E00D0146E050EE15C02E2E16AE55299
:10203000E16E1450E552E7CFD9FF1200D9CFE6FF89
:10204000E1CFD9FF020EE12604001C0E0001FA25A3
:10205000146E156A14BE1568FD0EDB501424E96E6B
:10206000FE0EDB501520EA6EEF50E66EF70EDBCF6A
:10207000E9FFF80EDBCFEAFFE552E750EF6E1B0EEB
:102080000001FA25146E156A14BE1568FD0EDB50AA
:102090001424E96EFE0EDB501520EA6EEF50E66E5A
:1020A000010EE76EF70EDBCFE9FFF80EDBCFEAFF9C
:1020B000E750E926000EEA22E552E750EF6E1E0EC9
:1020C0000001FA25146E156A14BE1568FD0EDB506A
:1020D0001424E96EFE0EDB501520EA6EEF50E66E1A
:1020E000020EE76EF70EDBCFE9FFF80EDBCFEAFF5B
:1020F000E750E926000EEA22E552E750EF6E1D0E8A
:102100000001FA25146E156A14BE1568FD0EDB5029
:102110001424E96EFE0EDB501520EA6EEF50E66ED9
:10212000030EE76EF70EDBCFE9FFF80EDBCFEAFF19
:10213000E750E926000EEA22E552E750EF6E200E46
:102140000001FA25146E156A14BE1568FD0EDB50E9
:102150001424E96EFE0EDB501520EA6EEF50E66E99
:10216000040EE76EF70EDBCFE9FFF80EDBCFEAFFD8
:10217000E750E926000EEA22E552E750EF6E1F0E07
:102180000001FA25146E156A14BE1568FD0EDB50A9
:102190001424E96EFE0EDB501520EA6EEF50E66E59
:1021A000050EE76EF70EDBCFE9FFF80EDBCFEAFF97
:1021B000E750E926000EEA22E552E750EF6E220EC4
:1021C0000001FA25146E156A14BE1568FD0EDB5069
:1021D0001424E96EFE0EDB501520EA6EEF50E66E19
:1021E000060EE76EF70EDBCFE9FFF80EDBCFEAFF56
:1021F000E750E926000EEA22E552E750EF6E210E85
:102200000001FA25146E156A14BE1568FD0EDB5028
:102210001424E96EFE0EDB501520EA6EEF50E66ED8
:10222000070EE76EF70EDBCFE9FFF80EDBCFEAFF14
:10223000E750E926000EEA22E552E750EF6E240E41
:102240000001FA25146E156A14BE1568FD0EDB50E8
:102250001424E96EFE0EDB501520EA6EEF50E66E98
:10226000080EE76EF70EDBCFE9FFF80EDBCFEAFFD3
:10227000E750E926000EEA22E552E750EF6E230E02
:102280000001FA25146E156A14BE1568FD0EDB50A8
:102290001424E96EFE0EDB501520EA6EEF50E66E58
:1022A000090EE76EF70EDBCFE9FFF80EDBCFEAFF92
:1022B000E750E926000EEA22E552E750EF6E260EBF
:1022C0000001FA25146E156A14BE1568FD0EDB5068
:1022D0001424E96EFE0EDB501520EA6EEF50E66E18
:1022E0000A0EE76EF70EDBCFE9FFF80EDBCFEAFF51
:1022F000E750E926000EEA22E552E750EF6E010EA4
:10230000DB6A0B0EF36E010EDBCFF4FFF350F45CCF
:1023100023E2010EDB50E76EF70EDBCFE9FFF80E8C
:10232000DBCFEAFFE750E926000EEA22EFCF14F0F8
:10233000010EDB50E76EF90EDBCFE9FFFA0EDBCFC3
:10234000EAFFE750E926000EEA22EF50145C01E0B4
:1023500003D0010EDB2AD5D7010EDB500B0802E1BA
:10236000040E41D0DF6A020EDF5C3BE2010EDB6A45
:102370000B0EF36E010EDBCFF4FFF350F45C29E299
:10238000010EDB50E76EF70EDBCFE9FFF80EDBCF77
:10239000EAFFE750E926000EEA22EFCF14F0010E23
:1023A000DBCFE6FF0B0EDF02F350E552E724E76ECA
:1023B000FB0EDBCFE9FFFC0EDBCFEAFFE750E9269F
:1023C000000EEA22EF50145C01E003D0010EDB2A7C
:1023D000CFD7010EDB500B0802E1DF2804D0DF2A43
:1023E000C2D7000E00D0146E020EE15C02E2E16A78
:1023F000E552E16E1450E552E7CFD9FF1200D9CF74
:10240000E6FFE1CFD9FF04001A0EE66E75EC3AF054
:10241000E5520D0EE66E75EC3AF0E5520A0EE66EE8
:1024200075EC3AF0E552010EE66EADEC30F0E55297
:10243000C80EE66EE66AE66AFB0EDBCFE6FFFC0E30
:10244000DBCFE6FFD0EC38F0146E050EE15E1450E1
:10245000490E146E6B0E156E166A14C0E6FF15C099
:10246000E6FF16C0E6FFC9EC39F0E552E552E55249
:10247000030EE66EADEC30F0E5523E0EE66EFB0E5E
:10248000DBCFE6FFFC0EDBCFE6FF06EC39F0E552D2
:10249000E552E552F3CF14F0F4CF15F014501510B7
:1024A00002E1000EEAD3C80EE66EE66AE66AFB0EAB
:1024B000DBCFE6FFFC0EDBCFE6FFD0EC38F0146E8E
:1024C000050EE15E14501F0EE66EE66A2A0E146ECB
:1024D0006B0E156E166A14C0E6FF15C0E6FF16C037
:1024E000E6FFFB0EDBCFE6FFFC0EDBCFE6FFADEC3D
:1024F00038F0176E070EE15E1750010EE76EFD0E05
:10250000DBCFE9FFFE0EDBCFEAFFE750E926000E46
:10251000EA22EF50E66E0A0EE76EFB0EDBCFE9FF14
:10252000FC0EDBCFEAFFE750E926000EEA22E55277
:10253000E750EF6EFD0EDBCFE9FFFE0EDBCFEAFFCB
:10254000EF50E66E0B0EE76EFB0EDBCFE9FFFC0EE5
:10255000DBCFEAFFE750E926000EEA22E552E7501A
:10256000EF6E030EE76EFD0EDBCFE9FFFE0EDBCF55
:10257000EAFFE750E926000EEA22EF50E66E0C0E65
:10258000E76EFB0EDBCFE9FFFC0EDBCFEAFFE75087
:10259000E926000EEA22E552E750EF6E020EE76EE2
:1025A000FD0EDBCFE9FFFE0EDBCFEAFFE750E926A9
:1025B000000EEA22EF50E66E0D0EE76EFB0EDBCF4B
:1025C000E9FFFC0EDBCFEAFFE750E926000EEA2226
:1025D000E552E750EF6E050EE76EFD0EDBCFE9FF2B
:1025E000FE0EDBCFEAFFE750E926000EEA22EF50AD
:1025F000E66E0E0EE76EFB0EDBCFE9FFFC0EDBCFC7
:10260000EAFFE750E926000EEA22E552E750EF6EB6
:10261000040EE76EFD0EDBCFE9FFFE0EDBCFEAFF17
:10262000E750E926000EEA22EF50E66E0F0EE76E45
:10263000FB0EDBCFE9FFFC0EDBCFEAFFE750E9261C
:10264000000EEA22E552E750EF6E070EE76EFD0E30
:10265000DBCFE9FFFE0EDBCFEAFFE750E926000EF5
:10266000EA22EF50E66E100EE76EFB0EDBCFE9FFBD
:10267000FC0EDBCFEAFFE750E926000EEA22E55226
:10268000E750EF6E060EE76EFD0EDBCFE9FFFE0EA4
:10269000DBCFEAFFE750E926000EEA22EF50E66EB4
:1026A000110EE76EFB0EDBCFE9FFFC0EDBCFEAFF7E
:1026B000E750E926000EEA22E552E750EF6E090ED8
:1026C000E76EFD0EDBCFE9FFFE0EDBCFEAFFE75042
:1026D000E926000EEA22EF50E66E120EE76EFB0EC0
:1026E000DBCFE9FFFC0EDBCFEAFFE750E926000E67
:1026F000EA22E552E750EF6E080EE76EFD0EDBCFE3
:10270000E9FFFE0EDBCFEAFFE750E926000EEA22E2
:10271000EF50E66E130EE76EFB0EDBCFE9FFFC0E0B
:10272000DBCFEAFFE750E926000EEA22E552E75048
:10273000EF6E140EE76EFB0EDBCFE9FFFC0EDBCF76
:10274000EAFFE750E926000EEA22460EEF6E0A0E77
:10275000E76EFD0EDBCFE9FFFE0EDBCFEAFFE750B1
:10276000E926000EEA22EF50E66E150EE76EFB0E2C
:10277000DBCFE9FFFC0EDBCFEAFFE750E926000ED6
:10278000EA22E552E750EF6EFA0EDB50650A01E1EE
:1027900005D2010A01E1DDD1070A01E1B5D1010A43
:1027A00001E18DD1030A01E165D1510A01E13DD179
:1027B000090A01E115D1010A01E1EDD00F0A01E199
:1027C000C5D0010A01E19DD0030A76E0010A4FE07D
:1027D000070A28E0010A01E006D2080EE66EE66A62
:1027E000210E146E6B0E156E166A14C0E6FF15C02E
:1027F000E6FF16C0E6FF1E0EE76EFB0EDBCF17F0FE
:10280000FC0EDBCF18F0E7501726000E182217C079
:10281000E6FF18C0E6FFADEC38F0196E070EE15E7A
:10282000195006D2080EE66EE66A180E146E6B0E8C
:10283000156E166A14C0E6FF15C0E6FF16C0E6FF67
:102840001E0EE76EFB0EDBCF17F0FC0EDBCF18F091
:10285000E7501726000E182217C0E6FF18C0E6FF43
:10286000ADEC38F0196E070EE15E1950E1D1080E9B
:10287000E66EE66A0F0E146E6B0E156E166A14C0C5
:10288000E6FF15C0E6FF16C0E6FF1E0EE76EFB0E64
:10289000DBCF17F0FC0EDBCF18F0E7501726000E49
:1028A000182217C0E6FF18C0E6FFADEC38F0196E2D
:1028B000070EE15E1950BCD1080EE66EE66A060E00
:1028C000146E6B0E156E166A14C0E6FF15C0E6FF97
:1028D00016C0E6FF1E0EE76EFB0EDBCF17F0FC0EF8
:1028E000DBCF18F0E7501726000E182217C0E6FFBE
:1028F00018C0E6FFADEC38F0196E070EE15E195016
:1029000097D1080EE66EE66AFD0E146E6A0E156E1D
:10291000166A14C0E6FF15C0E6FF16C0E6FF1E0EDD
:10292000E76EFB0EDBCF17F0FC0EDBCF18F0E750A5
:102930001726000E182217C0E6FF18C0E6FFADEC00
:1029400038F0196E070EE15E195072D1080EE66E6E
:10295000E66AF40E146E6A0E156E166A14C0E6FF6F
:1029600015C0E6FF16C0E6FF1E0EE76EFB0EDBCFBE
:1029700017F0FC0EDBCF18F0E7501726000E1822D8
:1029800017C0E6FF18C0E6FFADEC38F0196E070E71
:10299000E15E19504DD1080EE66EE66AEB0E146E3C
:1029A0006A0E156E166A14C0E6FF15C0E6FF16C063
:1029B000E6FF1E0EE76EFB0EDBCF17F0FC0EDBCF43
:1029C00018F0E7501726000E182217C0E6FF18C0AF
:1029D000E6FFADEC38F0196E070EE15E195028D114
:1029E000080EE66EE66AE20E146E6A0E156E166A40
:1029F00014C0E6FF15C0E6FF16C0E6FF1E0EE76E28
:102A0000FB0EDBCF17F0FC0EDBCF18F0E7501726DC
:102A1000000E182217C0E6FF18C0E6FFADEC38F034
:102A2000196E070EE15E195003D1080EE66EE66AD4
:102A3000D90E146E6A0E156E166A14C0E6FF15C024
:102A4000E6FF16C0E6FF1E0EE76EFB0EDBCF17F0AB
:102A5000FC0EDBCF18F0E7501726000E182217C027
:102A6000E6FF18C0E6FFADEC38F0196E070EE15E28
:102A70001950DED0080EE66EE66AD00E146E6A0EAD
:102A8000156E166A14C0E6FF15C0E6FF16C0E6FF15
:102A90001E0EE76EFB0EDBCF17F0FC0EDBCF18F03F
:102AA000E7501726000E182217C0E6FF18C0E6FFF1
:102AB000ADEC38F0196E070EE15E1950B9D0080E72
:102AC000E66EE66AC50E146E6A0E156E166A14C0BE
:102AD000E6FF15C0E6FF16C0E6FF1E0EE76EFB0E12
:102AE000DBCF17F0FC0EDBCF18F0E7501726000EF7
:102AF000182217C0E6FF18C0E6FFADEC38F0196EDB
:102B0000070EE15E195094D0080EE66EE66ABA0E22
:102B1000146E6A0E156E166A14C0E6FF15C0E6FF45
:102B200016C0E6FF1E0EE76EFB0EDBCF17F0FC0EA5
:102B3000DBCF18F0E7501726000E182217C0E6FF6B
:102B400018C0E6FFADEC38F0196E070EE15E1950C3
:102B50006FD0080EE66EE66AB10E146E6A0E156E40
:102B6000166A14C0E6FF15C0E6FF16C0E6FF1E0E8B
:102B7000E76EFB0EDBCF17F0FC0EDBCF18F0E75053
:102B80001726000E182217C0E6FF18C0E6FFADECAE
:102B900038F0196E070EE15E19504AD0080EE66E45
:102BA000E66AA80E146E6A0E156E166A14C0E6FF69
:102BB00015C0E6FF16C0E6FF1E0EE76EFB0EDBCF6C
:102BC00017F0FC0EDBCF18F0E7501726000E182286
:102BD00017C0E6FF18C0E6FFADEC38F0196E070E1F
:102BE000E15E195025D0080EE66EE66AB10E146E4D
:102BF0006A0E156E166A14C0E6FF15C0E6FF16C011
:102C0000E6FF1E0EE76EFB0EDBCF17F0FC0EDBCFF0
:102C100018F0E7501726000E182217C0E6FF18C05C
:102C2000E6FFADEC38F0196E070EE15E195000D0EA
:102C3000260EE76EFB0EDBCFE9FFFC0EDBCFEAFFD3
:102C4000E750E926000EEA221A0EEF6E270EE76E15
:102C5000FB0EDBCFE9FFFC0EDBCFEAFFE750E926F6
:102C6000000EEA22EF6AFB0EDBCFE6FFFC0EDBCFA5
:102C7000E6FFFBEC39F0E552E552E552E7CFD9FF2C
:102C80001200D9CFE6FFE1CFD9FFE65204001A0EB9
:102C9000E66E75EC3AF0E5520D0EE66E75EC3AF024
:102CA000E5520A0EE66E75EC3AF0E552010EE66E5C
:102CB000ADEC30F0E552C80EE66EE66AE66AFC0E50
:102CC000DBCFE6FFFD0EDBCFE6FFD0EC38F0146E75
:102CD000050EE15E14509C0E146E6A0E156E166A97
:102CE00014C0E6FF15C0E6FF16C0E6FFC9EC39F0D8
:102CF000E552E552E552030EE66EADEC30F0E552DA
:102D0000DF6ADF50146E156AD890155004E6C80EBD
:102D1000145C000E155812E2DF50E76EFC0EDBCF9C
:102D2000E9FFFD0EDBCFEAFFE750E926000EEA22BD
:102D3000EF503E0801E102D0DF2AE3D7DF50146EE6
:102D4000156A153404E21450C708000E155402E247
:102D5000000E34D31F0EE66EE66A7D0E146E6A0E08
:102D6000156E166A14C0E6FF15C0E6FF16C0E6FF32
:102D7000FC0EDBCFE6FFFD0EDBCFE6FFADEC38F05F
:102D8000176E070EE15E1750010EE76EFA0EDBCFED
:102D9000E9FFFB0EDBCFEAFFE750E926000EEA224F
:102DA000EF50E66E0A0EE76EFC0EDBCFE9FFFD0E7C
:102DB000DBCFEAFFE750E926000EEA22E552E750B2
:102DC000EF6EFA0EDBCFE9FFFB0EDBCFEAFFEF5031
:102DD000E66E0B0EE76EFC0EDBCFE9FFFD0EDBCFE0
:102DE000EAFFE750E926000EEA22E552E750EF6ECF
:102DF000030EE76EFA0EDBCFE9FFFB0EDBCFEAFF37
:102E0000E750E926000EEA22EF50E66E0C0EE76E60
:102E1000FC0EDBCFE9FFFD0EDBCFEAFFE750E92632
:102E2000000EEA22E552E750EF6E020EE76EFA0E50
:102E3000DBCFE9FFFB0EDBCFEAFFE750E926000E10
:102E4000EA22EF50E66E0D0EE76EFC0EDBCFE9FFD7
:102E5000FD0EDBCFEAFFE750E926000EEA22E5523D
:102E6000E750EF6E050EE76EFA0EDBCFE9FFFB0EC3
:102E7000DBCFEAFFE750E926000EEA22EF50E66ECC
:102E80000E0EE76EFC0EDBCFE9FFFD0EDBCFEAFF97
:102E9000E750E926000EEA22E552E750EF6E040EF5
:102EA000E76EFA0EDBCFE9FFFB0EDBCFEAFFE75060
:102EB000E926000EEA22EF50E66E0F0EE76EFC0EDA
:102EC000DBCFE9FFFD0EDBCFEAFFE750E926000E7E
:102ED000EA22E552E750EF6E070EE76EFA0EDBCFFF
:102EE000E9FFFB0EDBCFEAFFE750E926000EEA22FE
:102EF000EF50E66E100EE76EFC0EDBCFE9FFFD0E25
:102F0000DBCFEAFFE750E926000EEA22E552E75060
:102F1000EF6E060EE76EFA0EDBCFE9FFFB0EDBCF9E
:102F2000EAFFE750E926000EEA22EF50E66E110EA6
:102F3000E76EFC0EDBCFE9FFFD0EDBCFEAFFE750CB
:102F4000E926000EEA22E552E750EF6E090EE76E21
:102F5000FA0EDBCFE9FFFB0EDBCFEAFFE750E926F5
:102F6000000EEA22EF50E66E120EE76EFC0EDBCF8B
:102F7000E9FFFD0EDBCFEAFFE750E926000EEA226B
:102F8000E552E750EF6E080EE76EFA0EDBCFE9FF71
:102F9000FB0EDBCFEAFFE750E926000EEA22EF50F6
:102FA000E66E130EE76EFC0EDBCFE9FFFD0EDBCF06
:102FB000EAFFE750E926000EEA22E552E750EF6EFD
:102FC000140EE76EFC0EDBCFE9FFFD0EDBCFEAFF50
:102FD000E750E926000EEA22460EEF6E0A0EE76E73
:102FE000FA0EDBCFE9FFFB0EDBCFEAFFE750E92665
:102FF000000EEA22EF50E66E150EE76EFC0EDBCFF8
:10300000E9FFFD0EDBCFEAFFE750E926000EEA22DA
:10301000E552E750EF6EFE0EDB50500A01E191D110
:103020001F0A01E176D1010A01E15BD1030A01E146
:1030300040D1010A01E125D1070A01E10AD1010AC3
:1030400001E1EFD0030A01E1D4D0010A01E1B9D0D6
:103050000F0A01E19ED0010A01E183D0030A69E071
:10306000010A4FE0070A35E0010A1BE0030A01E00C
:1030700080D1700E146E6A0E156E166A14C0E6FFCB
:1030800015C0E6FF16C0E6FFFC0EDBCFE6FFFD0E27
:10309000DBCFE6FFEAEC38F0176E050EE15E175065
:1030A00068D1630E146E6A0E156E166A14C0E6FFC0
:1030B00015C0E6FF16C0E6FFFC0EDBCFE6FFFD0EF7
:1030C000DBCFE6FFEAEC38F0176E050EE15E175035
:1030D00050D1560E146E6A0E156E166A14C0E6FFB5
:1030E00015C0E6FF16C0E6FFFC0EDBCFE6FFFD0EC7
:1030F000DBCFE6FFEAEC38F0176E050EE15E175005
:1031000038D1490E146E6A0E156E166A14C0E6FFA9
:1031100015C0E6FF16C0E6FFFC0EDBCFE6FFFD0E96
:10312000DBCFE6FFEAEC38F0176E050EE15E1750D4
:1031300020D13C0E146E6A0E156E166A14C0E6FF9E
:1031400015C0E6FF16C0E6FFFC0EDBCFE6FFFD0E66
:10315000DBCFE6FFEAEC38F0176E050EE15E1750A4
:1031600008D12F0E146E6A0E156E166A14C0E6FF93
:1031700015C0E6FF16C0E6FFFC0EDBCFE6FFFD0E36
:10318000DBCFE6FFEAEC38F0176E050EE15E175074
:10319000F0D0220E146E6A0E156E166A14C0E6FF89
:1031A00015C0E6FF16C0E6FFFC0EDBCFE6FFFD0E06
:1031B000DBCFE6FFEAEC38F0176E050EE15E175044
:1031C000D8D0150E146E6A0E156E166A14C0E6FF7E
:1031D00015C0E6FF16C0E6FFFC0EDBCFE6FFFD0ED6
:1031E000DBCFE6FFEAEC38F0176E050EE15E175014
:1031F000C0D0080E146E6A0E156E166A14C0E6FF73
:1032000015C0E6FF16C0E6FFFC0EDBCFE6FFFD0EA5
:10321000DBCFE6FFEAEC38F0176E050EE15E1750E3
:10322000A8D0FB0E146E690E156E166A14C0E6FF68
:1032300015C0E6FF16C0E6FFFC0EDBCFE6FFFD0E75
:10324000DBCFE6FFEAEC38F0176E050EE15E1750B3
:1032500090D0EE0E146E690E156E166A14C0E6FF5D
:1032600015C0E6FF16C0E6FFFC0EDBCFE6FFFD0E45
:10327000DBCFE6FFEAEC38F0176E050EE15E175083
:1032800078D0E10E146E690E156E166A14C0E6FF52
:1032900015C0E6FF16C0E6FFFC0EDBCFE6FFFD0E15
:1032A000DBCFE6FFEAEC38F0176E050EE15E175053
:1032B00060D0D40E146E690E156E166A14C0E6FF47
:1032C00015C0E6FF16C0E6FFFC0EDBCFE6FFFD0EE5
:1032D000DBCFE6FFEAEC38F0176E050EE15E175023
:1032E00048D0C70E146E690E156E166A14C0E6FF3C
:1032F00015C0E6FF16C0E6FFFC0EDBCFE6FFFD0EB5
:10330000DBCFE6FFEAEC38F0176E050EE15E1750F2
:1033100030D0BA0E146E690E156E166A14C0E6FF30
:1033200015C0E6FF16C0E6FFFC0EDBCFE6FFFD0E84
:10333000DBCFE6FFEAEC38F0176E050EE15E1750C2
:1033400018D0AD0E146E690E156E166A14C0E6FF25
:1033500015C0E6FF16C0E6FFFC0EDBCFE6FFFD0E54
:10336000DBCFE6FFEAEC38F0176E050EE15E175092
:1033700000D02A0EE76EFC0EDBCFE9FFFD0EDBCF9F
:10338000EAFFE750E926000EEA221A0EEF6E2B0E36
:10339000E76EFC0EDBCFE9FFFD0EDBCFEAFFE75067
:1033A000E926000EEA22EF6AFC0EDBCFE6FFFD0EF7
:1033B000DBCFE6FFFBEC39F0E552E552E552E55292
:1033C000E7CFD9FF1200D9CFE6FFE1CFD9FF060E34
:1033D000E126010EDF6E010EDB6A020EDB6A010ED2
:1033E000F36E030EF3CFDBFF1A0EF36E040EF3CF72
:1033F000DBFF050EDB6A0400010EE66ED950040FF8
:10340000E66E000EDA20E66E8DEC30F0E552E55205
:10341000E552B10EE76EFB0EDBCFE9FFFC0EDBCF12
:10342000EAFFE750E926000EEA22EF50410806E1E4
:10343000010EF36E030EF3CFDBFF02D0030EDB6A47
:1034400000000400010EE66EADEC30F0E552040021
:10345000A00E146E690E156E166A14C0E6FF15C034
:10346000E6FF16C0E6FFC9EC39F0E552E552E55239
:10347000030EE66EADEC30F0E5520400C80EE66EC9
:10348000E66AE66AFD0EDBCFE6FFFE0EDBCFE6FF67
:10349000D0EC38F0146E050EE15E1450930E146EED
:1034A000690E156E166A14C0E6FF15C0E6FF16C059
:1034B000E6FFFD0EDBCFE6FFFE0EDBCFE6FFEAEC1C
:1034C00038F0176E050EE15E1750010EE76EF90E2B
:1034D000DBCFE9FFFA0EDBCFEAFFE750E926000E6B
:1034E000EA22EF50E66E0C0EE76EFD0EDBCFE9FF31
:1034F000FE0EDBCFEAFFE750E926000EEA22E55296
:10350000E750EF6EF90EDBCFE9FFFA0EDBCFEAFFF3
:10351000EF50E66E0D0EE76EFD0EDBCFE9FFFE0EFF
:10352000DBCFEAFFE750E926000EEA22E552E7503A
:10353000EF6E030EE76EF90EDBCFE9FFFA0EDBCF7D
:10354000EAFFE750E926000EEA22EF50E66E0E0E83
:10355000E76EFD0EDBCFE9FFFE0EDBCFEAFFE750A3
:10356000E926000EEA22E552E750EF6E020EE76E02
:10357000F90EDBCFE9FFFA0EDBCFEAFFE750E926D1
:10358000000EEA22EF50E66E0F0EE76EFD0EDBCF67
:10359000E9FFFE0EDBCFEAFFE750E926000EEA2244
:1035A000E552E750EF6E050EE76EF90EDBCFE9FF4F
:1035B000FA0EDBCFEAFFE750E926000EEA22EF50D1
:1035C000E66E100EE76EFD0EDBCFE9FFFE0EDBCFE1
:1035D000EAFFE750E926000EEA22E552E750EF6ED7
:1035E000040EE76EF90EDBCFE9FFFA0EDBCFEAFF40
:1035F000E750E926000EEA22EF50E66E110EE76E64
:10360000FD0EDBCFE9FFFE0EDBCFEAFFE750E92638
:10361000000EEA22E552E750EF6E070EE76EF90E54
:10362000DBCFE9FFFA0EDBCFEAFFE750E926000E19
:10363000EA22EF50E66E120EE76EFD0EDBCFE9FFD9
:10364000FE0EDBCFEAFFE750E926000EEA22E55244
:10365000E750EF6E060EE76EF90EDBCFE9FFFA0ECC
:10366000DBCFEAFFE750E926000EEA22EF50E66ED4
:10367000130EE76EFD0EDBCFE9FFFE0EDBCFEAFF98
:10368000E750E926000EEA22E552E750EF6E090EF8
:10369000E76EF90EDBCFE9FFFA0EDBCFEAFFE7506A
:1036A000E926000EEA22EF50E66E140EE76EFD0EDC
:1036B000DBCFE9FFFE0EDBCFEAFFE750E926000E85
:1036C000EA22E552E750EF6E080EE76EF90EDBCF07
:1036D000E9FFFA0EDBCFEAFFE750E926000EEA2207
:1036E000EF50E66E150EE76EFD0EDBCFE9FFFE0E26
:1036F000DBCFEAFFE750E926000EEA22E552E75069
:10370000EF6E160EE76EFD0EDBCFE9FFFE0EDBCF90
:10371000EAFFE750E926000EEA22460EEF6E0A0E97
:10372000E76EF90EDBCFE9FFFA0EDBCFEAFFE750D9
:10373000E926000EEA22EF50E66E170EE76EFD0E48
:10374000DBCFE9FFFE0EDBCFEAFFE750E926000EF4
:10375000EA22E552E750EF6E7E0E146E690E156E8A
:10376000166A14C0E6FF15C0E6FF16C0E6FFFD0EA0
:10377000DBCFE6FFFE0EDBCFE6FFEAEC38F0176E9C
:10378000050EE15E1750690E146E690E156E166A0D
:1037900014C0E6FF15C0E6FF16C0E6FFFD0EDBCF46
:1037A000E6FFFE0EDBCFE6FFEAEC38F0176E050E03
:1037B000E15E17500F0EE76EFB0EDBCFE9FFFC0E4C
:1037C000DBCFEAFFE750E926000EEA22EF50E66E73
:1037D000330EE76EFD0EDBCFE9FFFE0EDBCFEAFF17
:1037E000E750E926000EEA22E552E750EF6E100E90
:1037F000E76EFB0EDBCFE9FFFC0EDBCFEAFFE75005
:10380000E926000EEA22EF50E66E370EE76EFD0E57
:10381000DBCFE9FFFE0EDBCFEAFFE750E926000E23
:10382000EA22E552E750EF6E110EE76EFB0EDBCF9A
:10383000E9FFFC0EDBCFEAFFE750E926000EEA22A3
:10384000EF50E66E3B0EE76EFD0EDBCFE9FFFE0E9E
:10385000DBCFEAFFE750E926000EEA22E552E75007
:10386000EF6E0000500E146E690E156E166A14C0CD
:10387000E6FF15C0E6FF16C0E6FFFD0EDBCFE6FF54
:10388000FE0EDBCFE6FFEAEC38F0176E050EE15EC8
:103890001750120EE76EFB0EDBCFE9FFFC0EDBCFFD
:1038A000EAFFE750E926000EEA22EF50E66E470EE7
:1038B000E76EFD0EDBCFE9FFFE0EDBCFEAFFE75040
:1038C000E926000EEA22E552E750EF6E130EE76E8E
:1038D000FB0EDBCFE9FFFC0EDBCFEAFFE750E9266A
:1038E000000EEA22EF50E66E4B0EE76EFD0EDBCFC8
:1038F000E9FFFE0EDBCFEAFFE750E926000EEA22E1
:10390000E552E750EF6E150EE76EFB0EDBCFE9FFD9
:10391000FC0EDBCFEAFFE750E926000EEA22EF506B
:10392000E66E530EE76EFD0EDBCFE9FFFE0EDBCF3A
:10393000EAFFE750E926000EEA22E552E750EF6E73
:103940000000230E146E690E156E166A14C0E6FF91
:1039500015C0E6FF16C0E6FFFD0EDBCFE6FFFE0E4C
:10396000DBCFE6FFEAEC38F0176E050EE15E17508C
:10397000160EE76EFB0EDBCFE9FFFC0EDBCFEAFF96
:10398000E750E926000EEA22EF50E66E5F0EE76E82
:10399000FD0EDBCFE9FFFE0EDBCFEAFFE750E926A5
:1039A000000EEA22E552E750EF6E170EE76EFB0EAF
:1039B000DBCFE9FFFC0EDBCFEAFFE750E926000E84
:1039C000EA22EF50E66E630EE76EFD0EDBCFE9FFF5
:1039D000FE0EDBCFEAFFE750E926000EEA22E552B1
:1039E000E750EF6E190EE76EFB0EDBCFE9FFFC0E22
:1039F000DBCFEAFFE750E926000EEA22EF50E66E41
:103A00006B0EE76EFD0EDBCFE9FFFE0EDBCFEAFFAC
:103A1000E750E926000EEA22E552E750EF6E1A0E53
:103A2000E76EFB0EDBCFE9FFFC0EDBCFEAFFE750D2
:103A3000E926000EEA22EF50E66E730EE76EFD0EE9
:103A4000DBCFE9FFFE0EDBCFEAFFE750E926000EF1
:103A5000EA22E552E750EF6E1B0EE76EFB0EDBCF5E
:103A6000E9FFFC0EDBCFEAFFE750E926000EEA2271
:103A7000EF50E66E770EE76EFD0EDBCFE9FFFE0E30
:103A8000DBCFEAFFE750E926000EEA22E552E750D5
:103A9000EF6E1D0EE76EFB0EDBCFE9FFFC0EDBCFFA
:103AA000EAFFE750E926000EEA22EF50E66E7F0EAD
:103AB000E76EFD0EDBCFE9FFFE0EDBCFEAFFE7503E
:103AC000E926000EEA22E552E750EF6E0000F60EFE
:103AD000146E680E156E166A14C0E6FF15C0E6FF78
:103AE00016C0E6FFFD0EDBCFE6FFFE0EDBCFE6FFE6
:103AF000EAEC38F0176E050EE15E17501E0EE76E09
:103B0000FB0EDBCFE9FFFC0EDBCFEAFFE750E92637
:103B1000000EEA22EF50E66E8B0EE76EFD0EDBCF55
:103B2000E9FFFE0EDBCFEAFFE750E926000EEA22AE
:103B3000E552E750EF6E1F0EE76EFB0EDBCFE9FF9D
:103B4000FC0EDBCFEAFFE750E926000EEA22EF5039
:103B5000E66E8F0EE76EFD0EDBCFE9FFFE0EDBCFCC
:103B6000EAFFE750E926000EEA22E552E750EF6E41
:103B7000210EE76EFB0EDBCFE9FFFC0EDBCFEAFF89
:103B8000E750E926000EEA22EF50E66E970EE76E48
:103B9000FD0EDBCFE9FFFE0EDBCFEAFFE750E926A3
:103BA000000EEA22E552E750EF6E220EE76EFB0EA2
:103BB000DBCFE9FFFC0EDBCFEAFFE750E926000E82
:103BC000EA22EF50E66E9F0EE76EFD0EDBCFE9FFB7
:103BD000FE0EDBCFEAFFE750E926000EEA22E552AF
:103BE000E750EF6E230EE76EFB0EDBCFE9FFFC0E16
:103BF000DBCFEAFFE750E926000EEA22EF50E66E3F
:103C0000A30EE76EFD0EDBCFE9FFFE0EDBCFEAFF72
:103C1000E750E926000EEA22E552E750EF6E250E46
:103C2000E76EFB0EDBCFE9FFFC0EDBCFEAFFE750D0
:103C3000E926000EEA22EF50E66EAB0EE76EFD0EAF
:103C4000DBCFE9FFFE0EDBCFEAFFE750E926000EEF
:103C5000EA22E552E750EF6EB00EE66EFD0EDBCFC6
:103C6000E6FFFE0EDBCFE6FF8DEC30F0E552E552CD
:103C7000E5520000C80EE66EE66AE66AFD0EDBCF8E
:103C8000E6FFFE0EDBCFE6FFD0EC38F0146E050E3B
:103C9000E15E1450C50E146E680E156E166A14C0DF
:103CA000E6FF15C0E6FF16C0E6FFFD0EDBCFE6FF20
:103CB000FE0EDBCFE6FFEAEC38F0176E050EE15E94
:103CC0001750260EE76EFB0EDBCFE9FFFC0EDBCFB5
:103CD000EAFFE750E926000EEA22EF50E66E0B0EEF
:103CE000E76EFD0EDBCFE9FFFE0EDBCFEAFFE7500C
:103CF000E926000EEA22E552E750EF6E270EE76E46
:103D0000FB0EDBCFE9FFFC0EDBCFEAFFE750E92635
:103D1000000EEA22EF50E66E0F0EE76EFD0EDBCFCF
:103D2000E9FFFE0EDBCFEAFFE750E926000EEA22AC
:103D3000E552E750EF6E290EE76EFB0EDBCFE9FF91
:103D4000FC0EDBCFEAFFE750E926000EEA22EF5037
:103D5000E66E170EE76EFD0EDBCFE9FFFE0EDBCF42
:103D6000EAFFE750E926000EEA22E552E750EF6E3F
:103D70002A0EE76EFB0EDBCFE9FFFC0EDBCFEAFF7E
:103D8000E750E926000EEA22EF50E66E1F0EE76EBE
:103D9000FD0EDBCFE9FFFE0EDBCFEAFFE750E926A1
:103DA000000EEA22E552E750EF6E2C0EE76EFB0E96
:103DB000DBCFE9FFFC0EDBCFEAFFE750E926000E80
:103DC000EA22EF50E66E270EE76EFD0EDBCFE9FF2D
:103DD000FE0EDBCFEAFFE750E926000EEA22E552AD
:103DE000E750EF6E2D0EE76EFB0EDBCFE9FFFC0E0A
:103DF000DBCFEAFFE750E926000EEA22EF50E66E3D
:103E00002B0EE76EFD0EDBCFE9FFFE0EDBCFEAFFE8
:103E1000E750E926000EEA22E552E750EF6E000077
:103E2000940E146E680E156E166A14C0E6FF15C067
:103E3000E6FF16C0E6FFFD0EDBCFE6FFFE0EDBCF92
:103E4000E6FFEAEC38F0176E050EE15E17502E0E15
:103E5000E76EFB0EDBCFE9FFFC0EDBCFEAFFE7509E
:103E6000E926000EEA22EF50E66E3B0EE76EFD0EED
:103E7000DBCFE9FFFE0EDBCFEAFFE750E926000EBD
:103E8000EA22E552E750EF6E2F0EE76EFB0EDBCF16
:103E9000E9FFFC0EDBCFEAFFE750E926000EEA223D
:103EA000EF50E66E3F0EE76EFD0EDBCFE9FFFE0E34
:103EB000DBCFEAFFE750E926000EEA22E552E750A1
:103EC000EF6E310EE76EFB0EDBCFE9FFFC0EDBCFB2
:103ED000EAFFE750E926000EEA22EF50E66E470EB1
:103EE000E76EFD0EDBCFE9FFFE0EDBCFEAFFE7500A
:103EF000E926000EEA22E552E750EF6E320EE76E39
:103F0000FB0EDBCFE9FFFC0EDBCFEAFFE750E92633
:103F1000000EEA22EF50E66E4F0EE76EFD0EDBCF8D
:103F2000E9FFFE0EDBCFEAFFE750E926000EEA22AA
:103F3000E552E750EF6E340EE76EFB0EDBCFE9FF84
:103F4000FC0EDBCFEAFFE750E926000EEA22EF5035
:103F5000E66E570EE76EFD0EDBCFE9FFFE0EDBCF00
:103F6000EAFFE750E926000EEA22E552E750EF6E3D
:103F7000350EE76EFB0EDBCFE9FFFC0EDBCFEAFF71
:103F8000E750E926000EEA22EF50E66E5B0EE76E80
:103F9000FD0EDBCFE9FFFE0EDBCFEAFFE750E9269F
:103FA000000EEA22E552E750EF6E770E146E680EAF
:103FB000156E166A14C0E6FF15C0E6FF16C0E6FFD0
:103FC000FD0EDBCFE6FFFE0EDBCFE6FFEAEC38F0BE
:103FD000176E050EE15E1750360EE76EFB0EDBCF57
:103FE000E9FFFC0EDBCFEAFFE750E926000EEA22EC
:103FF000EF50E66E6B0EE76EFD0EDBCFE9FFFE0EB7
:10400000DBCFEAFFE750E926000EEA22E552E7504F
:10401000EF6E370EE76EFB0EDBCFE9FFFC0EDBCF5A
:10402000EAFFE750E926000EEA22EF50E66E6F0E37
:10403000E76EFD0EDBCFE9FFFE0EDBCFEAFFE750B8
:10404000E926000EEA22E552E750EF6E390EE76EE0
:10405000FB0EDBCFE9FFFC0EDBCFEAFFE750E926E2
:10406000000EEA22EF50E66E770EE76EFD0EDBCF14
:10407000E9FFFE0EDBCFEAFFE750E926000EEA2259
:10408000E552E750EF6E00007C0EE66EFD0EDBCFD2
:10409000E6FFFE0EDBCFE6FF8DEC30F0E552E55299
:1040A000E55200000400010EE66ED950040FE66EE2
:1040B000000EDA20E66E8DEC30F0E552E552E55266
:1040C000030EDB0401E0A1D1010EE66EADEC30F091
:1040D000E5526A0E146E680E156E166A14C0E6FF7D
:1040E00015C0E6FF16C0E6FFC9EC39F0E552E5520F
:1040F000E552030EE66EADEC30F0E552C80EE66E0A
:10410000E66AE66AFD0EDBCFE6FFFE0EDBCFE6FFDA
:10411000D0EC38F0146E050EE15E1450930E146E60
:10412000690E156E166A14C0E6FF15C0E6FF16C0CC
:10413000E6FFFD0EDBCFE6FFFE0EDBCFE6FFEAEC8F
:1041400038F0176E050EE15E1750010EE76EF90E9E
:10415000DBCFE9FFFA0EDBCFEAFFE750E926000EDE
:10416000EA22EF50E66E0C0EE76EFD0EDBCFE9FFA4
:10417000FE0EDBCFEAFFE750E926000EEA22E55209
:10418000E750EF6EF90EDBCFE9FFFA0EDBCFEAFF67
:10419000EF50E66E0D0EE76EFD0EDBCFE9FFFE0E73
:1041A000DBCFEAFFE750E926000EEA22E552E750AE
:1041B000EF6E030EE76EF90EDBCFE9FFFA0EDBCFF1
:1041C000EAFFE750E926000EEA22EF50E66E0E0EF7
:1041D000E76EFD0EDBCFE9FFFE0EDBCFEAFFE75017
:1041E000E926000EEA22E552E750EF6E020EE76E76
:1041F000F90EDBCFE9FFFA0EDBCFEAFFE750E92645
:10420000000EEA22EF50E66E0F0EE76EFD0EDBCFDA
:10421000E9FFFE0EDBCFEAFFE750E926000EEA22B7
:10422000E552E750EF6E050EE76EF90EDBCFE9FFC2
:10423000FA0EDBCFEAFFE750E926000EEA22EF5044
:10424000E66E100EE76EFD0EDBCFE9FFFE0EDBCF54
:10425000EAFFE750E926000EEA22E552E750EF6E4A
:10426000040EE76EF90EDBCFE9FFFA0EDBCFEAFFB3
:10427000E750E926000EEA22EF50E66E110EE76ED7
:10428000FD0EDBCFE9FFFE0EDBCFEAFFE750E926AC
:10429000000EEA22E552E750EF6E070EE76EF90EC8
:1042A000DBCFE9FFFA0EDBCFEAFFE750E926000E8D
:1042B000EA22EF50E66E120EE76EFD0EDBCFE9FF4D
:1042C000FE0EDBCFEAFFE750E926000EEA22E552B8
:1042D000E750EF6E060EE76EF90EDBCFE9FFFA0E40
:1042E000DBCFEAFFE750E926000EEA22EF50E66E48
:1042F000130EE76EFD0EDBCFE9FFFE0EDBCFEAFF0C
:10430000E750E926000EEA22E552E750EF6E090E6B
:10431000E76EF90EDBCFE9FFFA0EDBCFEAFFE750DD
:10432000E926000EEA22EF50E66E140EE76EFD0E4F
:10433000DBCFE9FFFE0EDBCFEAFFE750E926000EF8
:10434000EA22E552E750EF6E080EE76EF90EDBCF7A
:10435000E9FFFA0EDBCFEAFFE750E926000EEA227A
:10436000EF50E66E150EE76EFD0EDBCFE9FFFE0E99
:10437000DBCFEAFFE750E926000EEA22E552E750DC
:10438000EF6E160EE76EFD0EDBCFE9FFFE0EDBCF04
:10439000EAFFE750E926000EEA22460EEF6E0A0E0B
:1043A000E76EF90EDBCFE9FFFA0EDBCFEAFFE7504D
:1043B000E926000EEA22EF50E66E170EE76EFD0EBC
:1043C000DBCFE9FFFE0EDBCFEAFFE750E926000E68
:1043D000EA22E552E750EF6E550E146E680E156E28
:1043E000166A14C0E6FF15C0E6FF16C0E6FFFD0E14
:1043F000DBCFE6FFFE0EDBCFE6FFEAEC38F0176E10
:10440000050EE15E17500000A4D1030EDB5001E061
:10441000A0D1010EE66EADEC30F0E552480E146E00
:10442000680E156E166A14C0E6FF15C0E6FF16C0CA
:10443000E6FFC9EC39F0E552E552E552030EE66EAF
:10444000ADEC30F0E552C80EE66EE66AE66AFD0EA7
:10445000DBCFE6FFFE0EDBCFE6FFD0EC38F0146ECC
:10446000050EE15E1450930E146E690E156E166AF9
:1044700014C0E6FF15C0E6FF16C0E6FFFD0EDBCF59
:10448000E6FFFE0EDBCFE6FFEAEC38F0176E050E16
:10449000E15E1750010EE76EF90EDBCFE9FFFA0E71
:1044A000DBCFEAFFE750E926000EEA22EF50E66E86
:1044B0000C0EE76EFD0EDBCFE9FFFE0EDBCFEAFF51
:1044C000E750E926000EEA22E552E750EF6EF90EBA
:1044D000DBCFE9FFFA0EDBCFEAFFEF50E66E0D0E01
:1044E000E76EFD0EDBCFE9FFFE0EDBCFEAFFE75004
:1044F000E926000EEA22E552E750EF6E030EE76E62
:10450000F90EDBCFE9FFFA0EDBCFEAFFE750E92631
:10451000000EEA22EF50E66E0E0EE76EFD0EDBCFC8
:10452000E9FFFE0EDBCFEAFFE750E926000EEA22A4
:10453000E552E750EF6E020EE76EF90EDBCFE9FFB2
:10454000FA0EDBCFEAFFE750E926000EEA22EF5031
:10455000E66E0F0EE76EFD0EDBCFE9FFFE0EDBCF42
:10456000EAFFE750E926000EEA22E552E750EF6E37
:10457000050EE76EF90EDBCFE9FFFA0EDBCFEAFF9F
:10458000E750E926000EEA22EF50E66E100EE76EC5
:10459000FD0EDBCFE9FFFE0EDBCFEAFFE750E92699
:1045A000000EEA22E552E750EF6E040EE76EF90EB8
:1045B000DBCFE9FFFA0EDBCFEAFFE750E926000E7A
:1045C000EA22EF50E66E110EE76EFD0EDBCFE9FF3B
:1045D000FE0EDBCFEAFFE750E926000EEA22E552A5
:1045E000E750EF6E070EE76EF90EDBCFE9FFFA0E2C
:1045F000DBCFEAFFE750E926000EEA22EF50E66E35
:10460000120EE76EFD0EDBCFE9FFFE0EDBCFEAFFF9
:10461000E750E926000EEA22E552E750EF6E060E5B
:10462000E76EF90EDBCFE9FFFA0EDBCFEAFFE750CA
:10463000E926000EEA22EF50E66E130EE76EFD0E3D
:10464000DBCFE9FFFE0EDBCFEAFFE750E926000EE5
:10465000EA22E552E750EF6E090EE76EF90EDBCF66
:10466000E9FFFA0EDBCFEAFFE750E926000EEA2267
:10467000EF50E66E140EE76EFD0EDBCFE9FFFE0E87
:10468000DBCFEAFFE750E926000EEA22E552E750C9
:10469000EF6E080EE76EF90EDBCFE9FFFA0EDBCF07
:1046A000EAFFE750E926000EEA22EF50E66E150E0B
:1046B000E76EFD0EDBCFE9FFFE0EDBCFEAFFE75032
:1046C000E926000EEA22E552E750EF6E160EE76E7D
:1046D000FD0EDBCFE9FFFE0EDBCFEAFFE750E92658
:1046E000000EEA22460EEF6E0A0EE76EF90EDBCFE1
:1046F000E9FFFA0EDBCFEAFFE750E926000EEA22D7
:10470000EF50E66E170EE76EFD0EDBCFE9FFFE0EF3
:10471000DBCFEAFFE750E926000EEA22E552E75038
:10472000EF6E330E146E680E156E166A14C0E6FF37
:1047300015C0E6FF16C0E6FFFD0EDBCFE6FFFE0E5E
:10474000DBCFE6FFEAEC38F0176E050EE15E17509E
:1047500000001E0E146E680E156E166A14C0E6FF79
:1047600015C0E6FF16C0E6FFFD0EDBCFE6FFFE0E2E
:10477000DBCFE6FFEAEC38F0176E050EE15E17506E
:104780003A0EE76EFB0EDBCFE9FFFC0EDBCFEAFF54
:10479000E750E926000EEA22EF50E66E2F0EE76E94
:1047A000FD0EDBCFE9FFFE0EDBCFEAFFE750E92687
:1047B000000EEA22E552E750EF6E3C0EE76EFB0E6C
:1047C000DBCFE9FFFC0EDBCFEAFFE750E926000E66
:1047D000EA22EF50E66E370EE76EFD0EDBCFE9FF03
:1047E000FE0EDBCFEAFFE750E926000EEA22E55293
:1047F000E750EF6E3D0EE76EFB0EDBCFE9FFFC0EE0
:10480000DBCFEAFFE750E926000EEA22EF50E66E22
:104810003B0EE76EFD0EDBCFE9FFFE0EDBCFEAFFBE
:10482000E750E926000EEA22E552E750EF6E00005D
:10483000560EE76EFB0EDBCFE9FFFC0EDBCFEAFF87
:10484000E750E926000EEA22EF50590818E10D0E54
:10485000146E680E156E166A14C0E6FF15C0E6FFEA
:1048600016C0E6FFFD0EDBCFE6FFFE0EDBCFE6FF58
:10487000EAEC38F0176E050EE15E175026D0560EA2
:10488000E76EFB0EDBCFE9FFFC0EDBCFEAFFE75064
:10489000E926000EEA22EF504E0817E1FC0E146ED6
:1048A000670E156E166A14C0E6FF15C0E6FF16C047
:1048B000E6FFFD0EDBCFE6FFFE0EDBCFE6FFEAEC08
:1048C00038F0176E050EE15E1750550EE76EFB0EC1
:1048D000DBCFE9FFFC0EDBCFEAFFE750E926000E55
:1048E000EA22EF50590818E1EB0E146E670E156EB0
:1048F000166A14C0E6FF15C0E6FF16C0E6FFFD0EFF
:10490000DBCFE6FFFE0EDBCFE6FFEAEC38F0176EFA
:10491000050EE15E175026D0550EE76EFB0EDBCF7D
:10492000E9FFFC0EDBCFEAFFE750E926000EEA22A2
:10493000EF504E0817E1DA0E146E670E156E166A08
:1049400014C0E6FF15C0E6FF16C0E6FFFD0EDBCF84
:10495000E6FFFE0EDBCFE6FFEAEC38F0176E050E41
:10496000E15E1750570EE76EFB0EDBCFE9FFFC0E42
:10497000DBCFEAFFE750E926000EEA22EF505908A4
:1049800018E1C90E146E670E156E166A14C0E6FFA4
:1049900015C0E6FF16C0E6FFFD0EDBCFE6FFFE0EFC
:1049A000DBCFE6FFEAEC38F0176E050EE15E17503C
:1049B00026D0570EE76EFB0EDBCFE9FFFC0EDBCFF8
:1049C000EAFFE750E926000EEA22EF504E0817E111
:1049D000B80E146E670E156E166A14C0E6FF15C089
:1049E000E6FF16C0E6FFFD0EDBCFE6FFFE0EDBCFD7
:1049F000E6FFEAEC38F0176E050EE15E1750000096
:104A00009F0E146E670E156E166A14C0E6FF15C071
:104A1000E6FF16C0E6FFFD0EDBCFE6FFFE0EDBCFA6
:104A2000E6FFEAEC38F0176E050EE15E17503F0E18
:104A3000E76EFB0EDBCFE9FFFC0EDBCFEAFFE750B2
:104A4000E926000EEA22EF50580855E17A0EE76E8B
:104A5000FD0EDBCFE9FFFE0EDBCFEAFFE750E926D4
:104A6000000EEA22350EEF6E7B0EE76EFD0EDBCFF9
:104A7000E9FFFE0EDBCFEAFFE750E926000EEA224F
:104A8000380EEF6E7E0EE76EFD0EDBCFE9FFFE0EF9
:104A9000DBCFEAFFE750E926000EEA22350EEF6E83
:104AA0007F0EE76EFD0EDBCFE9FFFE0EDBCFEAFFE8
:104AB000E750E926000EEA22380EEF6E820EE76E0E
:104AC000FD0EDBCFE9FFFE0EDBCFEAFFE750E92664
:104AD000000EEA22350EEF6E830EE76EFD0EDBCF81
:104AE000E9FFFE0EDBCFEAFFE750E926000EEA22DF
:104AF000380EEF6E75D03E0EE76EFB0EDBCFE9FF92
:104B0000FC0EDBCFEAFFE750E926000EEA22EF5069
:104B10002B080FE17B0EE76EFD0EDBCFE9FFFE0EEB
:104B2000DBCFEAFFE750E926000EEA22420EEF6EE5
:104B30001DD03E0EE76EFB0EDBCFE9FFFC0EDBCF98
:104B4000EAFFE750E926000EEA22EF502D080EE1B9
:104B50007B0EE76EFD0EDBCFE9FFFE0EDBCFEAFF3B
:104B6000E750E926000EEA22440EEF6E3F0EE76E94
:104B7000FB0EDBCFE9FFFC0EDBCFEAFFE750E926B7
:104B8000000EEA22EF50E66E7F0EE76EFD0EDBCFE1
:104B9000E9FFFE0EDBCFEAFFE750E926000EEA222E
:104BA000E552E750EF6E400EE76EFB0EDBCFE9FFFC
:104BB000FC0EDBCFEAFFE750E926000EEA22EF50B9
:104BC000E66E830EE76EFD0EDBCFE9FFFE0EDBCF58
:104BD000EAFFE750E926000EEA22E552E750EF6EC1
:104BE00000008E0E146E670E156E166A14C0E6FF76
:104BF00015C0E6FF16C0E6FFFD0EDBCFE6FFFE0E9A
:104C0000DBCFE6FFEAEC38F0176E050EE15E1750D9
:104C1000410EE76EFB0EDBCFE9FFFC0EDBCFEAFFB8
:104C2000E750E926000EEA22EF50580839E18E0ECF
:104C3000E76EFD0EDBCFE9FFFE0EDBCFEAFFE750AC
:104C4000E926000EEA22350EEF6E8F0EE76EFD0E9E
:104C5000DBCFE9FFFE0EDBCFEAFFE750E926000ECF
:104C6000EA22380EEF6E920EE76EFD0EDBCFE9FF03
:104C7000FE0EDBCFEAFFE750E926000EEA22350EF2
:104C8000EF6E930EE76EFD0EDBCFE9FFFE0EDBCF7E
:104C9000EAFFE750E926000EEA22380EEF6E3AD01E
:104CA000410EE76EFB0EDBCFE9FFFC0EDBCFEAFF28
:104CB000E750E926000EEA22EF50E66E8F0EE76E0F
:104CC000FD0EDBCFE9FFFE0EDBCFEAFFE750E92662
:104CD000000EEA22E552E750EF6E420EE76EFB0E41
:104CE000DBCFE9FFFC0EDBCFEAFFE750E926000E41
:104CF000EA22EF50E66E930EE76EFD0EDBCFE9FF82
:104D0000FE0EDBCFEAFFE750E926000EEA22E5526D
:104D1000E750EF6E0000980EE66EFD0EDBCFE6FF6B
:104D2000FE0EDBCFE6FF8DEC30F0E552E552E552AA
:104D30000000C80EE66EE66AE66AFD0EDBCFE6FF0F
:104D4000FE0EDBCFE6FFD0EC38F0146E050EE15E10
:104D50001450750E146E670E156E166A14C0E6FFB9
:104D600015C0E6FF16C0E6FFFD0EDBCFE6FFFE0E28
:104D7000DBCFE6FFEAEC38F0176E050EE15E175068
:104D8000430EE76EFB0EDBCFE9FFFC0EDBCFEAFF45
:104D9000E750E926000EEA22EF502B080FE10B0E38
:104DA000E76EFD0EDBCFE9FFFE0EDBCFEAFFE7503B
:104DB000E926000EEA22420EEF6E1DD0430EE76E8A
:104DC000FB0EDBCFE9FFFC0EDBCFEAFFE750E92665
:104DD000000EEA22EF502D080EE10B0EE76EFD0EDD
:104DE000DBCFE9FFFE0EDBCFEAFFE750E926000E3E
:104DF000EA22440EEF6E440EE76EFB0EDBCFE9FFB6
:104E0000FC0EDBCFEAFFE750E926000EEA22EF5066
:104E1000E66E0F0EE76EFD0EDBCFE9FFFE0EDBCF79
:104E2000EAFFE750E926000EEA22E552E750EF6E6E
:104E3000450EE76EFB0EDBCFE9FFFC0EDBCFEAFF92
:104E4000E750E926000EEA22EF50E66E130EE76EF9
:104E5000FD0EDBCFE9FFFE0EDBCFEAFFE750E926D0
:104E6000000EEA22E552E750EF6E0000300E146E9D
:104E7000670E156E166A14C0E6FF15C0E6FF16C071
:104E8000E6FFFD0EDBCFE6FFFE0EDBCFE6FFEAEC32
:104E900038F0176E050EE15E1750010EDB6A040E46
:104EA000F36E010EDBCFF4FFF350F45C01E333D17A
:104EB000010EDB5003E1460EDF6E13D0010EDB0462
:104EC00003E1480EDF6E0DD0010EDB50020803E156
:104ED0006A0EDF6E06D0010EDB50030802E16C0E95
:104EE000DF6EDF50E76EFB0EDBCFE9FFFC0EDBCFA2
:104EF000EAFFE750E926000EEA22EF5058086DE17C
:104F0000010EDB50100DF3502A0FE76EFD0EDBCFC4
:104F1000E9FFFE0EDBCFEAFFE750E926000EEA22AA
:104F2000350EEF6E010EDB50100DF350260FE76EBD
:104F3000FD0EDBCFE9FFFE0EDBCFEAFFE750E926EF
:104F4000000EEA22350EEF6E010EDB50100DF3500D
:104F5000220FE76EFD0EDBCFE9FFFE0EDBCFEAFF8F
:104F6000E750E926000EEA22350EEF6E010EDB5007
:104F7000100DF3502B0FE76EFD0EDBCFE9FFFE0E99
:104F8000DBCFEAFFE750E926000EEA22380EEF6E8B
:104F9000010EDB50100DF350270FE76EFD0EDBCF37
:104FA000E9FFFE0EDBCFEAFFE750E926000EEA221A
:104FB000380EEF6E010EDB50100DF350230FE76E2D
:104FC000FD0EDBCFE9FFFE0EDBCFEAFFE750E9265F
:104FD000000EEA22380EEF6E9BD0010EDB5006E188
:104FE000530EF36E020EF3CFDBFF1CD0010EDB0479
:104FF00006E1540EF36E020EF3CFDBFF13D0010E69
:10500000DB50020806E16E0EF36E020EF3CFDBFFFB
:1050100009D0010EDB50030805E16F0EF36E020E9E
:10502000F3CFDBFF020EDB50E76EFB0EDBCFE9FFB9
:10503000FC0EDBCFEAFFE750E926000EEA22EF5034
:10504000430824E1010EDB50100DF350220FE76EF0
:10505000FD0EDBCFE9FFFE0EDBCFEAFFE750E926CE
:10506000000EEA22340EEF6E010EDB50100DF350ED
:10507000230FE76EFD0EDBCFE9FFFE0EDBCFEAFF6D
:10508000E750E926000EEA22380EEF6EDF50E76E99
:10509000FB0EDBCFE9FFFC0EDBCFEAFFE750E92692
:1050A000000EEA22EF50E66E010EDB50100DF350B9
:1050B000270FE76EFD0EDBCFE9FFFE0EDBCFEAFF29
:1050C000E750E926000EEA22E552E750EF6EDF28AE
:1050D000E76EFB0EDBCFE9FFFC0EDBCFEAFFE7500C
:1050E000E926000EEA22EF50E66E010EDB50100DAD
:1050F000F3502B0FE76EFD0EDBCFE9FFFE0EDBCF8B
:10510000EAFFE750E926000EEA22E552E750EF6E8B
:10511000010EDB2AC4D6440EDF6E4B0EE76EFB0E8B
:10512000DBCFE9FFFC0EDBCFEAFFE750E926000EFC
:10513000EA22EF502E0801E036D1130E146E670EEE
:10514000156E166A14C0E6FF15C0E6FF16C0E6FF2E
:10515000FD0EDBCFE6FFFE0EDBCFE6FFEAEC38F01C
:10516000176E050EE15E1750B20EE76EFB0EDBCF39
:10517000E9FFFC0EDBCFEAFFE750E926000EEA224A
:10518000EF5041083DE1180EDF24E76EFD0EDBCF46
:10519000E9FFFE0EDBCFEAFFE750E926000EEA2228
:1051A000340EEF6E190EDF24E76EFD0EDBCFE9FF44
:1051B000FE0EDBCFEAFFE750E926000EEA22450E9D
:1051C000EF6E1A0EDF24E76EFD0EDBCFE9FFFE0E59
:1051D000DBCFEAFFE750E926000EEA22410EEF6E30
:1051E0001B0EDF24E76EFD0EDBCFE9FFFE0EDBCFEB
:1051F000EAFFE750E926000EEA22340EEF6E96D061
:10520000B20EE76EFB0EDBCFE9FFFC0EDBCFEAFF51
:10521000E750E926000EEA22EF5053083DE1180E50
:10522000DF24E76EFD0EDBCFE9FFFE0EDBCFEAFFEA
:10523000E750E926000EEA22350EEF6E190EDF2444
:10524000E76EFD0EDBCFE9FFFE0EDBCFEAFFE75096
:10525000E926000EEA22310EEF6E1A0EDF24E76E09
:10526000FD0EDBCFE9FFFE0EDBCFEAFFE750E926BC
:10527000000EEA22340EEF6E1B0EDF24E76EFD0EE9
:10528000DBCFE9FFFE0EDBCFEAFFE750E926000E99
:10529000EA22390EEF6E4AD0B20EE76EFB0EDBCF7C
:1052A000E9FFFC0EDBCFEAFFE750E926000EEA2219
:1052B000EF503CE1180EDF24E76EFD0EDBCFE9FF77
:1052C000FE0EDBCFEAFFE750E926000EEA22360E9B
:1052D000EF6E190EDF24E76EFD0EDBCFE9FFFE0E49
:1052E000DBCFEAFFE750E926000EEA22350EEF6E2B
:1052F0001A0EDF24E76EFD0EDBCFE9FFFE0EDBCFDB
:10530000EAFFE750E926000EEA22450EEF6E1B0E7B
:10531000DF24E76EFD0EDBCFE9FFFE0EDBCFEAFFF9
:10532000E750E926000EEA22300EEF6E4A0EE76ED5
:10533000FB0EDBCFE9FFFC0EDBCFEAFFE750E926EF
:10534000000EEA22EF50E66E270EDF24E76EFD0E18
:10535000DBCFE9FFFE0EDBCFEAFFE750E926000EC8
:10536000EA22E552E750EF6E4C0EE76EFB0EDBCF04
:10537000E9FFFC0EDBCFEAFFE750E926000EEA2248
:10538000EF50E66E2F0EDF24E76EFD0EDBCFE9FF58
:10539000FE0EDBCFEAFFE750E926000EEA22E552D7
:1053A000E750EF6E77D3F60E146E660E156E166A22
:1053B00014C0E6FF15C0E6FF16C0E6FFFD0EDBCF0A
:1053C000E6FFFE0EDBCFE6FFEAEC38F0176E050EC7
:1053D000E15E17504A0EE76EFB0EDBCFE9FFFC0ED5
:1053E000DBCFEAFFE750E926000EEA22EF50410842
:1053F0003DE1180EDF24E76EFD0EDBCFE9FFFE0E68
:10540000DBCFEAFFE750E926000EEA22340EEF6E0A
:10541000190EDF24E76EFD0EDBCFE9FFFE0EDBCFBA
:10542000EAFFE750E926000EEA22450EEF6E1A0E5B
:10543000DF24E76EFD0EDBCFE9FFFE0EDBCFEAFFD8
:10544000E750E926000EEA22410EEF6E1B0EDF2424
:10545000E76EFD0EDBCFE9FFFE0EDBCFEAFFE75084
:10546000E926000EEA22340EEF6E97D04A0EE76E60
:10547000FB0EDBCFE9FFFC0EDBCFEAFFE750E926AE
:10548000000EEA22EF5042083DE1180EDF24E76EDD
:10549000FD0EDBCFE9FFFE0EDBCFEAFFE750E9268A
:1054A000000EEA22350EEF6E190EDF24E76EFD0EB8
:1054B000DBCFE9FFFE0EDBCFEAFFE750E926000E67
:1054C000EA22310EEF6E1A0EDF24E76EFD0EDBCFFF
:1054D000E9FFFE0EDBCFEAFFE750E926000EEA22E5
:1054E000340EEF6E1B0EDF24E76EFD0EDBCFE9FFFF
:1054F000FE0EDBCFEAFFE750E926000EEA22390E66
:10550000EF6E4BD04A0EE76EFB0EDBCFE9FFFC0ED1
:10551000DBCFEAFFE750E926000EEA22EF505A08F7
:105520003CE1180EDF24E76EFD0EDBCFE9FFFE0E37
:10553000DBCFEAFFE750E926000EEA22360EEF6ED7
:10554000190EDF24E76EFD0EDBCFE9FFFE0EDBCF89
:10555000EAFFE750E926000EEA22350EEF6E1A0E3A
:10556000DF24E76EFD0EDBCFE9FFFE0EDBCFEAFFA7
:10557000E750E926000EEA22450EEF6E1B0EDF24EF
:10558000E76EFD0EDBCFE9FFFE0EDBCFEAFFE75053
:10559000E926000EEA22300EEF6E4B0EE76EFB0E90
:1055A000DBCFE9FFFC0EDBCFEAFFE750E926000E78
:1055B000EA22EF5043083DE1200EDF24E76EFD0EA6
:1055C000DBCFE9FFFE0EDBCFEAFFE750E926000E56
:1055D000EA22300EEF6E210EDF24E76EFD0EDBCFE8
:1055E000E9FFFE0EDBCFEAFFE750E926000EEA22D4
:1055F000300EEF6E220EDF24E76EFD0EDBCFE9FFEB
:10560000FE0EDBCFEAFFE750E926000EEA22340E59
:10561000EF6E230EDF24E76EFD0EDBCFE9FFFE0EFB
:10562000DBCFEAFFE750E926000EEA22310EEF6EEB
:1056300097D04B0EE76EFB0EDBCFE9FFFC0EDBCF06
:10564000EAFFE750E926000EEA22EF5044083DE168
:10565000200EDF24E76EFD0EDBCFE9FFFE0EDBCF71
:10566000EAFFE750E926000EEA22300EEF6E210E27
:10567000DF24E76EFD0EDBCFE9FFFE0EDBCFEAFF96
:10568000E750E926000EEA22300EEF6E220EDF24EC
:10569000E76EFD0EDBCFE9FFFE0EDBCFEAFFE75042
:1056A000E926000EEA22340EEF6E230EDF24E76EA9
:1056B000FD0EDBCFE9FFFE0EDBCFEAFFE750E92668
:1056C000000EEA22320EEF6E4BD04B0EE76EFB0E51
:1056D000DBCFE9FFFC0EDBCFEAFFE750E926000E47
:1056E000EA22EF5059083CE1200EDF24E76EFD0E60
:1056F000DBCFE9FFFE0EDBCFEAFFE750E926000E25
:10570000EA22360EEF6E210EDF24E76EFD0EDBCFB0
:10571000E9FFFE0EDBCFEAFFE750E926000EEA22A2
:10572000350EEF6E220EDF24E76EFD0EDBCFE9FFB4
:10573000FE0EDBCFEAFFE750E926000EEA22450E17
:10574000EF6E230EDF24E76EFD0EDBCFE9FFFE0ECA
:10575000DBCFEAFFE750E926000EEA22300EEF6EBB
:105760004C0EE76EFB0EDBCFE9FFFC0EDBCFEAFF52
:10577000E750E926000EEA22EF50450801E079D013
:105780002C0EDF24E76EFD0EDBCFE9FFFE0EDBCF34
:10579000EAFFE750E926000EEA22390EEF6E2D0EE1
:1057A000DF24E76EFD0EDBCFE9FFFE0EDBCFEAFF65
:1057B000E750E926000EEA22360EEF6E2E0EDF24A9
:1057C000E76EFD0EDBCFE9FFFE0EDBCFEAFFE75011
:1057D000E926000EEA22390EEF6E2F0EDF24E76E67
:1057E000FD0EDBCFE9FFFE0EDBCFEAFFE750E92637
:1057F000000EEA22340EEF6E300EDF24E76EFD0E4F
:10580000DBCFE9FFFE0EDBCFEAFFE750E926000E13
:10581000EA22340EEF6E310EDF24E76EFD0EDBCF91
:10582000E9FFFE0EDBCFEAFFE750E926000EEA2291
:10583000460EEF6E320EDF24E76EFD0EDBCFE9FF82
:10584000FE0EDBCFEAFFE750E926000EEA22390E12
:10585000EF6E330EDF24E76EFD0EDBCFE9FFFE0EA9
:10586000DBCFEAFFE750E926000EEA22420EEF6E98
:1058700011D14C0EE76EFB0EDBCFE9FFFC0EDBCF48
:10588000EAFFE750E926000EEA22EF50460801E061
:1058900079D02C0EDF24E76EFD0EDBCFE9FFFE0E84
:1058A000DBCFEAFFE750E926000EEA22360EEF6E64
:1058B0002D0EDF24E76EFD0EDBCFE9FFFE0EDBCF02
:1058C000EAFFE750E926000EEA22440EEF6E2E0EA4
:1058D000DF24E76EFD0EDBCFE9FFFE0EDBCFEAFF34
:1058E000E750E926000EEA22360EEF6E2F0EDF2477
:1058F000E76EFD0EDBCFE9FFFE0EDBCFEAFFE750E0
:10590000E926000EEA22450EEF6E300EDF24E76E28
:10591000FD0EDBCFE9FFFE0EDBCFEAFFE750E92605
:10592000000EEA22350EEF6E310EDF24E76EFD0E1B
:10593000DBCFE9FFFE0EDBCFEAFFE750E926000EE2
:10594000EA22310EEF6E320EDF24E76EFD0EDBCF62
:10595000E9FFFE0EDBCFEAFFE750E926000EEA2260
:10596000340EEF6E330EDF24E76EFD0EDBCFE9FF62
:10597000FE0EDBCFEAFFE750E926000EEA22350EE5
:10598000EF6E88D04C0EE76EFB0EDBCFE9FFFC0E0E
:10599000DBCFEAFFE750E926000EEA22EF50580875
:1059A00001E078D02C0EDF24E76EFD0EDBCFE9FF9F
:1059B000FE0EDBCFEAFFE750E926000EEA22370EA3
:1059C000EF6E2D0EDF24E76EFD0EDBCFE9FFFE0E3E
:1059D000DBCFEAFFE750E926000EEA22360EEF6E33
:1059E0002E0EDF24E76EFD0EDBCFE9FFFE0EDBCFD0
:1059F000EAFFE750E926000EEA22460EEF6E2F0E70
:105A0000DF24E76EFD0EDBCFE9FFFE0EDBCFEAFF02
:105A1000E750E926000EEA22340EEF6E300EDF2446
:105A2000E76EFD0EDBCFE9FFFE0EDBCFEAFFE750AE
:105A3000E926000EEA22340EEF6E310EDF24E76E07
:105A4000FD0EDBCFE9FFFE0EDBCFEAFFE750E926D4
:105A5000000EEA22460EEF6E320EDF24E76EFD0ED8
:105A6000DBCFE9FFFE0EDBCFEAFFE750E926000EB1
:105A7000EA22390EEF6E330EDF24E76EFD0EDBCF28
:105A8000E9FFFE0EDBCFEAFFE750E926000EEA222F
:105A9000420EEF6E0000E50E146E660E156E166A6D
:105AA00014C0E6FF15C0E6FF16C0E6FFFD0EDBCF13
:105AB000E6FFFE0EDBCFE6FFEAEC38F0176E050ED0
:105AC000E15E17504D0EE76EFB0EDBCFE9FFFC0EDB
